{
  "contracts/CouncilProjectRegulation.sol": {
    "CouncilProjectRegulation": {
      "abi": [
        {
          "anonymous": false,
          "inputs": [
            {
              "indexed": false,
              "internalType": "uint256",
              "name": "CouncilID",
              "type": "uint256"
            },
            {
              "indexed": false,
              "internalType": "uint256",
              "name": "ProjectID",
              "type": "uint256"
            },
            {
              "indexed": false,
              "internalType": "uint256",
              "name": "expenseId",
              "type": "uint256"
            },
            {
              "indexed": false,
              "internalType": "uint256",
              "name": "amount",
              "type": "uint256"
            },
            {
              "indexed": false,
              "internalType": "string",
              "name": "description",
              "type": "string"
            },
            {
              "indexed": false,
              "internalType": "address",
              "name": "payee_identifier",
              "type": "address"
            },
            {
              "indexed": false,
              "internalType": "string",
              "name": "reason",
              "type": "string"
            }
          ],
          "name": "ExpenseFlag",
          "type": "event"
        },
        {
          "inputs": [
            {
              "internalType": "uint256",
              "name": "_expenseId",
              "type": "uint256"
            },
            {
              "internalType": "uint256",
              "name": "_amount",
              "type": "uint256"
            },
            {
              "internalType": "string",
              "name": "_description",
              "type": "string"
            },
            {
              "internalType": "address",
              "name": "_payeeID",
              "type": "address"
            },
            {
              "internalType": "address",
              "name": "_approverID",
              "type": "address"
            },
            {
              "internalType": "uint256",
              "name": "_councilID",
              "type": "uint256"
            },
            {
              "internalType": "uint256",
              "name": "_projectID",
              "type": "uint256"
            },
            {
              "internalType": "uint256",
              "name": "_projectbudget",
              "type": "uint256"
            }
          ],
          "name": "checkExpenseValue",
          "outputs": [],
          "stateMutability": "nonpayable",
          "type": "function"
        },
        {
          "inputs": [],
          "name": "counter",
          "outputs": [
            {
              "internalType": "uint256",
              "name": "",
              "type": "uint256"
            }
          ],
          "stateMutability": "view",
          "type": "function"
        }
      ],
      "evm": {
        "bytecode": {
          "linkReferences": {},
          "object": "608060405234801561001057600080fd5b506108b3806100206000396000f3fe608060405234801561001057600080fd5b50600436106100365760003560e01c806361bc221a1461003b578063e6f07adf14610059575b600080fd5b610043610075565b60405161005091906101cc565b60405180910390f35b610073600480360381019061006e91906103cb565b61007b565b005b60005481565b60008081548092919061008d906104cc565b91905055506101f48711156100de577f695470c668c80c3fd0f5d71e6311e54d4e57adc0de9e28b64a66fa2f03686a4a83838a8a8a8a6040516100d5969594939291906105ee565b60405180910390a15b8473ffffffffffffffffffffffffffffffffffffffff168473ffffffffffffffffffffffffffffffffffffffff1603610153577f695470c668c80c3fd0f5d71e6311e54d4e57adc0de9e28b64a66fa2f03686a4a83838a8a8a8a60405161014a969594939291906106b5565b60405180910390a15b601481610160919061075f565b8711156101a9577f695470c668c80c3fd0f5d71e6311e54d4e57adc0de9e28b64a66fa2f03686a4a83838a8a8a8a6040516101a096959493929190610802565b60405180910390a15b5050505050505050565b6000819050919050565b6101c6816101b3565b82525050565b60006020820190506101e160008301846101bd565b92915050565b6000604051905090565b600080fd5b600080fd5b610204816101b3565b811461020f57600080fd5b50565b600081359050610221816101fb565b92915050565b600080fd5b600080fd5b6000601f19601f8301169050919050565b7f4e487b7100000000000000000000000000000000000000000000000000000000600052604160045260246000fd5b61027a82610231565b810181811067ffffffffffffffff8211171561029957610298610242565b5b80604052505050565b60006102ac6101e7565b90506102b88282610271565b919050565b600067ffffffffffffffff8211156102d8576102d7610242565b5b6102e182610231565b9050602081019050919050565b82818337600083830152505050565b600061031061030b846102bd565b6102a2565b90508281526020810184848401111561032c5761032b61022c565b5b6103378482856102ee565b509392505050565b600082601f83011261035457610353610227565b5b81356103648482602086016102fd565b91505092915050565b600073ffffffffffffffffffffffffffffffffffffffff82169050919050565b60006103988261036d565b9050919050565b6103a88161038d565b81146103b357600080fd5b50565b6000813590506103c58161039f565b92915050565b600080600080600080600080610100898b0312156103ec576103eb6101f1565b5b60006103fa8b828c01610212565b985050602061040b8b828c01610212565b975050604089013567ffffffffffffffff81111561042c5761042b6101f6565b5b6104388b828c0161033f565b96505060606104498b828c016103b6565b955050608061045a8b828c016103b6565b94505060a061046b8b828c01610212565b93505060c061047c8b828c01610212565b92505060e061048d8b828c01610212565b9150509295985092959890939650565b7f4e487b7100000000000000000000000000000000000000000000000000000000600052601160045260246000fd5b60006104d7826101b3565b91507fffffffffffffffffffffffffffffffffffffffffffffffffffffffffffffffff82036105095761050861049d565b5b600182019050919050565b600081519050919050565b600082825260208201905092915050565b60005b8381101561054e578082015181840152602081019050610533565b60008484015250505050565b600061056582610514565b61056f818561051f565b935061057f818560208601610530565b61058881610231565b840191505092915050565b61059c8161038d565b82525050565b7f457870656e73652076616c7565206973206f7665722035303000000000000000600082015250565b60006105d860198361051f565b91506105e3826105a2565b602082019050919050565b600060e08201905061060360008301896101bd565b61061060208301886101bd565b61061d60408301876101bd565b61062a60608301866101bd565b818103608083015261063c818561055a565b905061064b60a0830184610593565b81810360c083015261065c816105cb565b9050979650505050505050565b7f5061796565206973207468652073616d6520617320417070726f766572000000600082015250565b600061069f601d8361051f565b91506106aa82610669565b602082019050919050565b600060e0820190506106ca60008301896101bd565b6106d760208301886101bd565b6106e460408301876101bd565b6106f160608301866101bd565b8181036080830152610703818561055a565b905061071260a0830184610593565b81810360c083015261072381610692565b9050979650505050505050565b7f4e487b7100000000000000000000000000000000000000000000000000000000600052601260045260246000fd5b600061076a826101b3565b9150610775836101b3565b92508261078557610784610730565b5b828204905092915050565b7f457870656e736520666c6167676564206173203525206f662070726f6a65637460008201527f2062756467657400000000000000000000000000000000000000000000000000602082015250565b60006107ec60278361051f565b91506107f782610790565b604082019050919050565b600060e08201905061081760008301896101bd565b61082460208301886101bd565b61083160408301876101bd565b61083e60608301866101bd565b8181036080830152610850818561055a565b905061085f60a0830184610593565b81810360c0830152610870816107df565b905097965050505050505056fea2646970667358221220b8b8e86365dcf4c51e1101603e7bda63cc9c0b2ea05b8000dbf39bdf5deb7c3a64736f6c63430008180033",
          "opcodes": "PUSH1 0x80 PUSH1 0x40 MSTORE CALLVALUE DUP1 ISZERO PUSH2 0x10 JUMPI PUSH1 0x0 DUP1 REVERT JUMPDEST POP PUSH2 0x8B3 DUP1 PUSH2 0x20 PUSH1 0x0 CODECOPY PUSH1 0x0 RETURN INVALID PUSH1 0x80 PUSH1 0x40 MSTORE CALLVALUE DUP1 ISZERO PUSH2 0x10 JUMPI PUSH1 0x0 DUP1 REVERT JUMPDEST POP PUSH1 0x4 CALLDATASIZE LT PUSH2 0x36 JUMPI PUSH1 0x0 CALLDATALOAD PUSH1 0xE0 SHR DUP1 PUSH4 0x61BC221A EQ PUSH2 0x3B JUMPI DUP1 PUSH4 0xE6F07ADF EQ PUSH2 0x59 JUMPI JUMPDEST PUSH1 0x0 DUP1 REVERT JUMPDEST PUSH2 0x43 PUSH2 0x75 JUMP JUMPDEST PUSH1 0x40 MLOAD PUSH2 0x50 SWAP2 SWAP1 PUSH2 0x1CC JUMP JUMPDEST PUSH1 0x40 MLOAD DUP1 SWAP2 SUB SWAP1 RETURN JUMPDEST PUSH2 0x73 PUSH1 0x4 DUP1 CALLDATASIZE SUB DUP2 ADD SWAP1 PUSH2 0x6E SWAP2 SWAP1 PUSH2 0x3CB JUMP JUMPDEST PUSH2 0x7B JUMP JUMPDEST STOP JUMPDEST PUSH1 0x0 SLOAD DUP2 JUMP JUMPDEST PUSH1 0x0 DUP1 DUP2 SLOAD DUP1 SWAP3 SWAP2 SWAP1 PUSH2 0x8D SWAP1 PUSH2 0x4CC JUMP JUMPDEST SWAP2 SWAP1 POP SSTORE POP PUSH2 0x1F4 DUP8 GT ISZERO PUSH2 0xDE JUMPI PUSH32 0x695470C668C80C3FD0F5D71E6311E54D4E57ADC0DE9E28B64A66FA2F03686A4A DUP4 DUP4 DUP11 DUP11 DUP11 DUP11 PUSH1 0x40 MLOAD PUSH2 0xD5 SWAP7 SWAP6 SWAP5 SWAP4 SWAP3 SWAP2 SWAP1 PUSH2 0x5EE JUMP JUMPDEST PUSH1 0x40 MLOAD DUP1 SWAP2 SUB SWAP1 LOG1 JUMPDEST DUP5 PUSH20 0xFFFFFFFFFFFFFFFFFFFFFFFFFFFFFFFFFFFFFFFF AND DUP5 PUSH20 0xFFFFFFFFFFFFFFFFFFFFFFFFFFFFFFFFFFFFFFFF AND SUB PUSH2 0x153 JUMPI PUSH32 0x695470C668C80C3FD0F5D71E6311E54D4E57ADC0DE9E28B64A66FA2F03686A4A DUP4 DUP4 DUP11 DUP11 DUP11 DUP11 PUSH1 0x40 MLOAD PUSH2 0x14A SWAP7 SWAP6 SWAP5 SWAP4 SWAP3 SWAP2 SWAP1 PUSH2 0x6B5 JUMP JUMPDEST PUSH1 0x40 MLOAD DUP1 SWAP2 SUB SWAP1 LOG1 JUMPDEST PUSH1 0x14 DUP2 PUSH2 0x160 SWAP2 SWAP1 PUSH2 0x75F JUMP JUMPDEST DUP8 GT ISZERO PUSH2 0x1A9 JUMPI PUSH32 0x695470C668C80C3FD0F5D71E6311E54D4E57ADC0DE9E28B64A66FA2F03686A4A DUP4 DUP4 DUP11 DUP11 DUP11 DUP11 PUSH1 0x40 MLOAD PUSH2 0x1A0 SWAP7 SWAP6 SWAP5 SWAP4 SWAP3 SWAP2 SWAP1 PUSH2 0x802 JUMP JUMPDEST PUSH1 0x40 MLOAD DUP1 SWAP2 SUB SWAP1 LOG1 JUMPDEST POP POP POP POP POP POP POP POP JUMP JUMPDEST PUSH1 0x0 DUP2 SWAP1 POP SWAP2 SWAP1 POP JUMP JUMPDEST PUSH2 0x1C6 DUP2 PUSH2 0x1B3 JUMP JUMPDEST DUP3 MSTORE POP POP JUMP JUMPDEST PUSH1 0x0 PUSH1 0x20 DUP3 ADD SWAP1 POP PUSH2 0x1E1 PUSH1 0x0 DUP4 ADD DUP5 PUSH2 0x1BD JUMP JUMPDEST SWAP3 SWAP2 POP POP JUMP JUMPDEST PUSH1 0x0 PUSH1 0x40 MLOAD SWAP1 POP SWAP1 JUMP JUMPDEST PUSH1 0x0 DUP1 REVERT JUMPDEST PUSH1 0x0 DUP1 REVERT JUMPDEST PUSH2 0x204 DUP2 PUSH2 0x1B3 JUMP JUMPDEST DUP2 EQ PUSH2 0x20F JUMPI PUSH1 0x0 DUP1 REVERT JUMPDEST POP JUMP JUMPDEST PUSH1 0x0 DUP2 CALLDATALOAD SWAP1 POP PUSH2 0x221 DUP2 PUSH2 0x1FB JUMP JUMPDEST SWAP3 SWAP2 POP POP JUMP JUMPDEST PUSH1 0x0 DUP1 REVERT JUMPDEST PUSH1 0x0 DUP1 REVERT JUMPDEST PUSH1 0x0 PUSH1 0x1F NOT PUSH1 0x1F DUP4 ADD AND SWAP1 POP SWAP2 SWAP1 POP JUMP JUMPDEST PUSH32 0x4E487B7100000000000000000000000000000000000000000000000000000000 PUSH1 0x0 MSTORE PUSH1 0x41 PUSH1 0x4 MSTORE PUSH1 0x24 PUSH1 0x0 REVERT JUMPDEST PUSH2 0x27A DUP3 PUSH2 0x231 JUMP JUMPDEST DUP2 ADD DUP2 DUP2 LT PUSH8 0xFFFFFFFFFFFFFFFF DUP3 GT OR ISZERO PUSH2 0x299 JUMPI PUSH2 0x298 PUSH2 0x242 JUMP JUMPDEST JUMPDEST DUP1 PUSH1 0x40 MSTORE POP POP POP JUMP JUMPDEST PUSH1 0x0 PUSH2 0x2AC PUSH2 0x1E7 JUMP JUMPDEST SWAP1 POP PUSH2 0x2B8 DUP3 DUP3 PUSH2 0x271 JUMP JUMPDEST SWAP2 SWAP1 POP JUMP JUMPDEST PUSH1 0x0 PUSH8 0xFFFFFFFFFFFFFFFF DUP3 GT ISZERO PUSH2 0x2D8 JUMPI PUSH2 0x2D7 PUSH2 0x242 JUMP JUMPDEST JUMPDEST PUSH2 0x2E1 DUP3 PUSH2 0x231 JUMP JUMPDEST SWAP1 POP PUSH1 0x20 DUP2 ADD SWAP1 POP SWAP2 SWAP1 POP JUMP JUMPDEST DUP3 DUP2 DUP4 CALLDATACOPY PUSH1 0x0 DUP4 DUP4 ADD MSTORE POP POP POP JUMP JUMPDEST PUSH1 0x0 PUSH2 0x310 PUSH2 0x30B DUP5 PUSH2 0x2BD JUMP JUMPDEST PUSH2 0x2A2 JUMP JUMPDEST SWAP1 POP DUP3 DUP2 MSTORE PUSH1 0x20 DUP2 ADD DUP5 DUP5 DUP5 ADD GT ISZERO PUSH2 0x32C JUMPI PUSH2 0x32B PUSH2 0x22C JUMP JUMPDEST JUMPDEST PUSH2 0x337 DUP5 DUP3 DUP6 PUSH2 0x2EE JUMP JUMPDEST POP SWAP4 SWAP3 POP POP POP JUMP JUMPDEST PUSH1 0x0 DUP3 PUSH1 0x1F DUP4 ADD SLT PUSH2 0x354 JUMPI PUSH2 0x353 PUSH2 0x227 JUMP JUMPDEST JUMPDEST DUP2 CALLDATALOAD PUSH2 0x364 DUP5 DUP3 PUSH1 0x20 DUP7 ADD PUSH2 0x2FD JUMP JUMPDEST SWAP2 POP POP SWAP3 SWAP2 POP POP JUMP JUMPDEST PUSH1 0x0 PUSH20 0xFFFFFFFFFFFFFFFFFFFFFFFFFFFFFFFFFFFFFFFF DUP3 AND SWAP1 POP SWAP2 SWAP1 POP JUMP JUMPDEST PUSH1 0x0 PUSH2 0x398 DUP3 PUSH2 0x36D JUMP JUMPDEST SWAP1 POP SWAP2 SWAP1 POP JUMP JUMPDEST PUSH2 0x3A8 DUP2 PUSH2 0x38D JUMP JUMPDEST DUP2 EQ PUSH2 0x3B3 JUMPI PUSH1 0x0 DUP1 REVERT JUMPDEST POP JUMP JUMPDEST PUSH1 0x0 DUP2 CALLDATALOAD SWAP1 POP PUSH2 0x3C5 DUP2 PUSH2 0x39F JUMP JUMPDEST SWAP3 SWAP2 POP POP JUMP JUMPDEST PUSH1 0x0 DUP1 PUSH1 0x0 DUP1 PUSH1 0x0 DUP1 PUSH1 0x0 DUP1 PUSH2 0x100 DUP10 DUP12 SUB SLT ISZERO PUSH2 0x3EC JUMPI PUSH2 0x3EB PUSH2 0x1F1 JUMP JUMPDEST JUMPDEST PUSH1 0x0 PUSH2 0x3FA DUP12 DUP3 DUP13 ADD PUSH2 0x212 JUMP JUMPDEST SWAP9 POP POP PUSH1 0x20 PUSH2 0x40B DUP12 DUP3 DUP13 ADD PUSH2 0x212 JUMP JUMPDEST SWAP8 POP POP PUSH1 0x40 DUP10 ADD CALLDATALOAD PUSH8 0xFFFFFFFFFFFFFFFF DUP2 GT ISZERO PUSH2 0x42C JUMPI PUSH2 0x42B PUSH2 0x1F6 JUMP JUMPDEST JUMPDEST PUSH2 0x438 DUP12 DUP3 DUP13 ADD PUSH2 0x33F JUMP JUMPDEST SWAP7 POP POP PUSH1 0x60 PUSH2 0x449 DUP12 DUP3 DUP13 ADD PUSH2 0x3B6 JUMP JUMPDEST SWAP6 POP POP PUSH1 0x80 PUSH2 0x45A DUP12 DUP3 DUP13 ADD PUSH2 0x3B6 JUMP JUMPDEST SWAP5 POP POP PUSH1 0xA0 PUSH2 0x46B DUP12 DUP3 DUP13 ADD PUSH2 0x212 JUMP JUMPDEST SWAP4 POP POP PUSH1 0xC0 PUSH2 0x47C DUP12 DUP3 DUP13 ADD PUSH2 0x212 JUMP JUMPDEST SWAP3 POP POP PUSH1 0xE0 PUSH2 0x48D DUP12 DUP3 DUP13 ADD PUSH2 0x212 JUMP JUMPDEST SWAP2 POP POP SWAP3 SWAP6 SWAP9 POP SWAP3 SWAP6 SWAP9 SWAP1 SWAP4 SWAP7 POP JUMP JUMPDEST PUSH32 0x4E487B7100000000000000000000000000000000000000000000000000000000 PUSH1 0x0 MSTORE PUSH1 0x11 PUSH1 0x4 MSTORE PUSH1 0x24 PUSH1 0x0 REVERT JUMPDEST PUSH1 0x0 PUSH2 0x4D7 DUP3 PUSH2 0x1B3 JUMP JUMPDEST SWAP2 POP PUSH32 0xFFFFFFFFFFFFFFFFFFFFFFFFFFFFFFFFFFFFFFFFFFFFFFFFFFFFFFFFFFFFFFFF DUP3 SUB PUSH2 0x509 JUMPI PUSH2 0x508 PUSH2 0x49D JUMP JUMPDEST JUMPDEST PUSH1 0x1 DUP3 ADD SWAP1 POP SWAP2 SWAP1 POP JUMP JUMPDEST PUSH1 0x0 DUP2 MLOAD SWAP1 POP SWAP2 SWAP1 POP JUMP JUMPDEST PUSH1 0x0 DUP3 DUP3 MSTORE PUSH1 0x20 DUP3 ADD SWAP1 POP SWAP3 SWAP2 POP POP JUMP JUMPDEST PUSH1 0x0 JUMPDEST DUP4 DUP2 LT ISZERO PUSH2 0x54E JUMPI DUP1 DUP3 ADD MLOAD DUP2 DUP5 ADD MSTORE PUSH1 0x20 DUP2 ADD SWAP1 POP PUSH2 0x533 JUMP JUMPDEST PUSH1 0x0 DUP5 DUP5 ADD MSTORE POP POP POP POP JUMP JUMPDEST PUSH1 0x0 PUSH2 0x565 DUP3 PUSH2 0x514 JUMP JUMPDEST PUSH2 0x56F DUP2 DUP6 PUSH2 0x51F JUMP JUMPDEST SWAP4 POP PUSH2 0x57F DUP2 DUP6 PUSH1 0x20 DUP7 ADD PUSH2 0x530 JUMP JUMPDEST PUSH2 0x588 DUP2 PUSH2 0x231 JUMP JUMPDEST DUP5 ADD SWAP2 POP POP SWAP3 SWAP2 POP POP JUMP JUMPDEST PUSH2 0x59C DUP2 PUSH2 0x38D JUMP JUMPDEST DUP3 MSTORE POP POP JUMP JUMPDEST PUSH32 0x457870656E73652076616C7565206973206F7665722035303000000000000000 PUSH1 0x0 DUP3 ADD MSTORE POP JUMP JUMPDEST PUSH1 0x0 PUSH2 0x5D8 PUSH1 0x19 DUP4 PUSH2 0x51F JUMP JUMPDEST SWAP2 POP PUSH2 0x5E3 DUP3 PUSH2 0x5A2 JUMP JUMPDEST PUSH1 0x20 DUP3 ADD SWAP1 POP SWAP2 SWAP1 POP JUMP JUMPDEST PUSH1 0x0 PUSH1 0xE0 DUP3 ADD SWAP1 POP PUSH2 0x603 PUSH1 0x0 DUP4 ADD DUP10 PUSH2 0x1BD JUMP JUMPDEST PUSH2 0x610 PUSH1 0x20 DUP4 ADD DUP9 PUSH2 0x1BD JUMP JUMPDEST PUSH2 0x61D PUSH1 0x40 DUP4 ADD DUP8 PUSH2 0x1BD JUMP JUMPDEST PUSH2 0x62A PUSH1 0x60 DUP4 ADD DUP7 PUSH2 0x1BD JUMP JUMPDEST DUP2 DUP2 SUB PUSH1 0x80 DUP4 ADD MSTORE PUSH2 0x63C DUP2 DUP6 PUSH2 0x55A JUMP JUMPDEST SWAP1 POP PUSH2 0x64B PUSH1 0xA0 DUP4 ADD DUP5 PUSH2 0x593 JUMP JUMPDEST DUP2 DUP2 SUB PUSH1 0xC0 DUP4 ADD MSTORE PUSH2 0x65C DUP2 PUSH2 0x5CB JUMP JUMPDEST SWAP1 POP SWAP8 SWAP7 POP POP POP POP POP POP POP JUMP JUMPDEST PUSH32 0x5061796565206973207468652073616D6520617320417070726F766572000000 PUSH1 0x0 DUP3 ADD MSTORE POP JUMP JUMPDEST PUSH1 0x0 PUSH2 0x69F PUSH1 0x1D DUP4 PUSH2 0x51F JUMP JUMPDEST SWAP2 POP PUSH2 0x6AA DUP3 PUSH2 0x669 JUMP JUMPDEST PUSH1 0x20 DUP3 ADD SWAP1 POP SWAP2 SWAP1 POP JUMP JUMPDEST PUSH1 0x0 PUSH1 0xE0 DUP3 ADD SWAP1 POP PUSH2 0x6CA PUSH1 0x0 DUP4 ADD DUP10 PUSH2 0x1BD JUMP JUMPDEST PUSH2 0x6D7 PUSH1 0x20 DUP4 ADD DUP9 PUSH2 0x1BD JUMP JUMPDEST PUSH2 0x6E4 PUSH1 0x40 DUP4 ADD DUP8 PUSH2 0x1BD JUMP JUMPDEST PUSH2 0x6F1 PUSH1 0x60 DUP4 ADD DUP7 PUSH2 0x1BD JUMP JUMPDEST DUP2 DUP2 SUB PUSH1 0x80 DUP4 ADD MSTORE PUSH2 0x703 DUP2 DUP6 PUSH2 0x55A JUMP JUMPDEST SWAP1 POP PUSH2 0x712 PUSH1 0xA0 DUP4 ADD DUP5 PUSH2 0x593 JUMP JUMPDEST DUP2 DUP2 SUB PUSH1 0xC0 DUP4 ADD MSTORE PUSH2 0x723 DUP2 PUSH2 0x692 JUMP JUMPDEST SWAP1 POP SWAP8 SWAP7 POP POP POP POP POP POP POP JUMP JUMPDEST PUSH32 0x4E487B7100000000000000000000000000000000000000000000000000000000 PUSH1 0x0 MSTORE PUSH1 0x12 PUSH1 0x4 MSTORE PUSH1 0x24 PUSH1 0x0 REVERT JUMPDEST PUSH1 0x0 PUSH2 0x76A DUP3 PUSH2 0x1B3 JUMP JUMPDEST SWAP2 POP PUSH2 0x775 DUP4 PUSH2 0x1B3 JUMP JUMPDEST SWAP3 POP DUP3 PUSH2 0x785 JUMPI PUSH2 0x784 PUSH2 0x730 JUMP JUMPDEST JUMPDEST DUP3 DUP3 DIV SWAP1 POP SWAP3 SWAP2 POP POP JUMP JUMPDEST PUSH32 0x457870656E736520666C6167676564206173203525206F662070726F6A656374 PUSH1 0x0 DUP3 ADD MSTORE PUSH32 0x2062756467657400000000000000000000000000000000000000000000000000 PUSH1 0x20 DUP3 ADD MSTORE POP JUMP JUMPDEST PUSH1 0x0 PUSH2 0x7EC PUSH1 0x27 DUP4 PUSH2 0x51F JUMP JUMPDEST SWAP2 POP PUSH2 0x7F7 DUP3 PUSH2 0x790 JUMP JUMPDEST PUSH1 0x40 DUP3 ADD SWAP1 POP SWAP2 SWAP1 POP JUMP JUMPDEST PUSH1 0x0 PUSH1 0xE0 DUP3 ADD SWAP1 POP PUSH2 0x817 PUSH1 0x0 DUP4 ADD DUP10 PUSH2 0x1BD JUMP JUMPDEST PUSH2 0x824 PUSH1 0x20 DUP4 ADD DUP9 PUSH2 0x1BD JUMP JUMPDEST PUSH2 0x831 PUSH1 0x40 DUP4 ADD DUP8 PUSH2 0x1BD JUMP JUMPDEST PUSH2 0x83E PUSH1 0x60 DUP4 ADD DUP7 PUSH2 0x1BD JUMP JUMPDEST DUP2 DUP2 SUB PUSH1 0x80 DUP4 ADD MSTORE PUSH2 0x850 DUP2 DUP6 PUSH2 0x55A JUMP JUMPDEST SWAP1 POP PUSH2 0x85F PUSH1 0xA0 DUP4 ADD DUP5 PUSH2 0x593 JUMP JUMPDEST DUP2 DUP2 SUB PUSH1 0xC0 DUP4 ADD MSTORE PUSH2 0x870 DUP2 PUSH2 0x7DF JUMP JUMPDEST SWAP1 POP SWAP8 SWAP7 POP POP POP POP POP POP POP JUMP INVALID LOG2 PUSH5 0x6970667358 0x22 SLT KECCAK256 0xB8 0xB8 0xE8 PUSH4 0x65DCF4C5 0x1E GT ADD PUSH1 0x3E PUSH28 0xDA63CC9C0B2EA05B8000DBF39BDF5DEB7C3A64736F6C634300081800 CALLER "
        },
        "methodIdentifiers": {
          "checkExpenseValue(uint256,uint256,string,address,address,uint256,uint256,uint256)": "e6f07adf",
          "counter()": "61bc221a"
        }
      }
    }
  }
}