{
  "contractName": "DataStorage",
  "abi": [
    {
      "constant": true,
      "inputs": [],
      "name": "storedData",
      "outputs": [
        {
          "internalType": "string",
          "name": "",
          "type": "string"
        }
      ],
      "payable": false,
      "stateMutability": "view",
      "type": "function"
    },
    {
      "constant": true,
      "inputs": [],
      "name": "version",
      "outputs": [
        {
          "internalType": "string",
          "name": "",
          "type": "string"
        }
      ],
      "payable": false,
      "stateMutability": "view",
      "type": "function"
    },
    {
      "constant": false,
      "inputs": [
        {
          "internalType": "string",
          "name": "data",
          "type": "string"
        }
      ],
      "name": "saveData",
      "outputs": [],
      "payable": false,
      "stateMutability": "nonpayable",
      "type": "function"
    },
    {
      "constant": true,
      "inputs": [],
      "name": "readData",
      "outputs": [
        {
          "internalType": "string",
          "name": "",
          "type": "string"
        }
      ],
      "payable": false,
      "stateMutability": "view",
      "type": "function"
    }
  ],
  "bytecode": "0x608060405234801561001057600080fd5b50610502806100206000396000f3fe608060405234801561001057600080fd5b506004361061004c5760003560e01c80632a1afcd91461005157806354fd4d50146100d4578063bef55ef314610157578063c46a93d2146101da575b600080fd5b610059610295565b6040518080602001828103825283818151815260200191508051906020019080838360005b8381101561009957808201518184015260208101905061007e565b50505050905090810190601f1680156100c65780820380516001836020036101000a031916815260200191505b509250505060405180910390f35b6100dc610333565b6040518080602001828103825283818151815260200191508051906020019080838360005b8381101561011c578082015181840152602081019050610101565b50505050905090810190601f1680156101495780820380516001836020036101000a031916815260200191505b509250505060405180910390f35b61015f61036c565b6040518080602001828103825283818151815260200191508051906020019080838360005b8381101561019f578082015181840152602081019050610184565b50505050905090810190601f1680156101cc5780820380516001836020036101000a031916815260200191505b509250505060405180910390f35b610293600480360360208110156101f057600080fd5b810190808035906020019064010000000081111561020d57600080fd5b82018360208201111561021f57600080fd5b8035906020019184600183028401116401000000008311171561024157600080fd5b91908080601f016020809104026020016040519081016040528093929190818152602001838380828437600081840152601f19601f82011690508083019250505050505050919291929050505061040e565b005b60008054600181600116156101000203166002900480601f01602080910402602001604051908101604052809291908181526020018280546001816001161561010002031660029004801561032b5780601f106103005761010080835404028352916020019161032b565b820191906000526020600020905b81548152906001019060200180831161030e57829003601f168201915b505050505081565b6040518060400160405280600581526020017f312e302e3000000000000000000000000000000000000000000000000000000081525081565b606060008054600181600116156101000203166002900480601f0160208091040260200160405190810160405280929190818152602001828054600181600116156101000203166002900480156104045780601f106103d957610100808354040283529160200191610404565b820191906000526020600020905b8154815290600101906020018083116103e757829003601f168201915b5050505050905090565b8060009080519060200190610424929190610428565b5050565b828054600181600116156101000203166002900490600052602060002090601f016020900481019282601f1061046957805160ff1916838001178555610497565b82800160010185558215610497579182015b8281111561049657825182559160200191906001019061047b565b5b5090506104a491906104a8565b5090565b6104ca91905b808211156104c65760008160009055506001016104ae565b5090565b9056fea265627a7a72315820afb8c4d6fc61adaef35e97093b181a1686922e9bf5ca697f57fef17dad9e5a2d64736f6c63430005100032",
  "source": "// SPDX-License-Identifier: MIT\npragma solidity ^0.5.0;\n\ncontract DataStorage {\n    // address public owner = msg.sender;\n    string public storedData;\n    string public constant version = \"1.0.0\";\n\n    // modifier onlyOwner() {\n    //     require(msg.sender == owner, \"Not the owner\");\n    //     _;\n    // }\n\n    function saveData(string memory data) public {\n        storedData = data;\n    }\n\n    // function storeData(string memory data) public onlyOwner {\n    //     storedData = data;\n    // }\n\n    function readData() public view returns (string memory) {\n        return storedData;\n    }\n}\n",
  "sourcePath": "/Users/jakenoar/repos/truffle-lightweight/contracts/DataStorage.sol",
  "compiler": {
    "name": "solc",
    "version": "0.5.16+commit.9c3226ce.Emscripten.clang"
  },
  "schemaVersion": "3.4.16",
  "updatedAt": "2023-12-05T17:41:52.497Z",
  "devdoc": {
    "methods": {}
  },
  "userdoc": {
    "methods": {}
  }
}