{
  "contractName": "ExpenseTracker",
  "abi": [
    {
      "anonymous": false,
      "inputs": [
        {
          "indexed": true,
          "internalType": "uint256",
          "name": "expenseId",
          "type": "uint256"
        },
        {
          "indexed": false,
          "internalType": "bool",
          "name": "approved",
          "type": "bool"
        }
      ],
      "name": "ExpenseApproved",
      "type": "event"
    },
    {
      "anonymous": false,
      "inputs": [
        {
          "indexed": true,
          "internalType": "uint256",
          "name": "expenseId",
          "type": "uint256"
        },
        {
          "indexed": false,
          "internalType": "uint256",
          "name": "amount",
          "type": "uint256"
        }
      ],
      "name": "ExpenseCreated",
      "type": "event"
    },
    {
      "constant": true,
      "inputs": [],
      "name": "expenseCount",
      "outputs": [
        {
          "internalType": "uint256",
          "name": "",
          "type": "uint256"
        }
      ],
      "payable": false,
      "stateMutability": "view",
      "type": "function"
    },
    {
      "constant": true,
      "inputs": [
        {
          "internalType": "uint256",
          "name": "",
          "type": "uint256"
        }
      ],
      "name": "expenses",
      "outputs": [
        {
          "internalType": "uint256",
          "name": "amount",
          "type": "uint256"
        },
        {
          "internalType": "bool",
          "name": "approved",
          "type": "bool"
        }
      ],
      "payable": false,
      "stateMutability": "view",
      "type": "function"
    },
    {
      "constant": false,
      "inputs": [
        {
          "internalType": "uint256",
          "name": "_amount",
          "type": "uint256"
        }
      ],
      "name": "createExpense",
      "outputs": [
        {
          "internalType": "uint256",
          "name": "",
          "type": "uint256"
        }
      ],
      "payable": false,
      "stateMutability": "nonpayable",
      "type": "function"
    },
    {
      "constant": false,
      "inputs": [
        {
          "internalType": "uint256",
          "name": "_expenseId",
          "type": "uint256"
        }
      ],
      "name": "approveExpense",
      "outputs": [
        {
          "internalType": "bool",
          "name": "",
          "type": "bool"
        }
      ],
      "payable": false,
      "stateMutability": "nonpayable",
      "type": "function"
    },
    {
      "constant": true,
      "inputs": [
        {
          "internalType": "uint256",
          "name": "_expenseId",
          "type": "uint256"
        }
      ],
      "name": "getExpenseAmount",
      "outputs": [
        {
          "internalType": "uint256",
          "name": "",
          "type": "uint256"
        }
      ],
      "payable": false,
      "stateMutability": "view",
      "type": "function"
    },
    {
      "constant": true,
      "inputs": [
        {
          "internalType": "uint256",
          "name": "_expenseId",
          "type": "uint256"
        }
      ],
      "name": "isExpenseApproved",
      "outputs": [
        {
          "internalType": "bool",
          "name": "",
          "type": "bool"
        }
      ],
      "payable": false,
      "stateMutability": "view",
      "type": "function"
    }
  ],
  "bytecode": "0x608060405234801561001057600080fd5b50610522806100206000396000f3fe608060405234801561001057600080fd5b50600436106100625760003560e01c806352e7df5d14610067578063732d995f146100855780638a99a31b146100c7578063af4afe0a14610109578063b579e7f114610156578063f7db127e1461019c575b600080fd5b61006f6101e2565b6040518082815260200191505060405180910390f35b6100b16004803603602081101561009b57600080fd5b81019080803590602001909291905050506101e8565b6040518082815260200191505060405180910390f35b6100f3600480360360208110156100dd57600080fd5b810190808035906020019092919050505061027e565b6040518082815260200191505060405180910390f35b6101356004803603602081101561011f57600080fd5b810190808035906020019092919050505061032c565b60405180838152602001821515151581526020019250505060405180910390f35b6101826004803603602081101561016c57600080fd5b810190808035906020019092919050505061035d565b604051808215151515815260200191505060405180910390f35b6101c8600480360360208110156101b257600080fd5b810190808035906020019092919050505061044a565b604051808215151515815260200191505060405180910390f35b60015481565b60006001548210610261576040517f08c379a00000000000000000000000000000000000000000000000000000000081526004018080602001828103825260168152602001807f457870656e736520646f6573206e6f742065786973740000000000000000000081525060200191505060405180910390fd5b600080838152602001908152602001600020600001549050919050565b600080600160008154809291906001019190505590506040518060400160405280848152602001600015158152506000808381526020019081526020016000206000820151816000015560208201518160010160006101000a81548160ff021916908315150217905550905050807f3858dc705496d9f9a2bdeef8f725b628983c5b59ea563e13bdfe68abe660355f846040518082815260200191505060405180910390a280915050919050565b60006020528060005260406000206000915090508060000154908060010160009054906101000a900460ff16905082565b600060015482106103d6576040517f08c379a00000000000000000000000000000000000000000000000000000000081526004018080602001828103825260168152602001807f457870656e736520646f6573206e6f742065786973740000000000000000000081525060200191505060405180910390fd5b600160008084815260200190815260200160002060010160006101000a81548160ff021916908315150217905550817f23c19de93ce378d27f3b34f74ae236838987d9179c902bca3cdc3bb93bd731446001604051808215151515815260200191505060405180910390a260019050919050565b600060015482106104c3576040517f08c379a00000000000000000000000000000000000000000000000000000000081526004018080602001828103825260168152602001807f457870656e736520646f6573206e6f742065786973740000000000000000000081525060200191505060405180910390fd5b60008083815260200190815260200160002060010160009054906101000a900460ff16905091905056fea265627a7a7231582032e5e83cc1c4e53d318ce41540c1d8b061fc1681e7572fb05ca384911e28abfa64736f6c63430005100032",
  "source": "// SPDX-License-Identifier: MIT\npragma solidity ^0.5.0;\n\ncontract ExpenseTracker {\n    struct Expense {\n        uint256 amount;\n        bool approved;\n    }\n\n\n    mapping(uint256 => Expense) public expenses;\n    uint256 public expenseCount;\n\n    event ExpenseCreated(uint256 indexed expenseId, uint256 amount);\n    event ExpenseApproved(uint256 indexed expenseId, bool approved);\n\n    function createExpense(uint256 _amount ) external returns (uint256){\n        uint256 expenseId = expenseCount++;\n        expenses[expenseId] = Expense(_amount, false);\n        emit ExpenseCreated(expenseId, _amount);\n        return expenseId;\n    }\n\n    function approveExpense(uint256 _expenseId) external returns (bool){\n        require(_expenseId < expenseCount, \"Expense does not exist\");\n        expenses[_expenseId].approved = true;\n        emit ExpenseApproved(_expenseId, true);\n        return true;\n    }\n\n    function getExpenseAmount(uint256 _expenseId) external view returns (uint256) {\n        require(_expenseId < expenseCount, \"Expense does not exist\");\n        return expenses[_expenseId].amount;\n    }\n\n    function isExpenseApproved(uint256 _expenseId) external view returns (bool) {\n        require(_expenseId < expenseCount, \"Expense does not exist\");\n        return expenses[_expenseId].approved;\n    }\n}\n",
  "sourcePath": "/Users/jakenoar/repos/truffle-lightweight/contracts/ExpenseTracker.sol",
  "compiler": {
    "name": "solc",
    "version": "0.5.16+commit.9c3226ce.Emscripten.clang"
  },
  "schemaVersion": "3.4.16",
  "updatedAt": "2024-02-06T16:10:11.449Z",
  "networkType": "ethereum",
  "devdoc": {
    "methods": {}
  },
  "userdoc": {
    "methods": {}
  }
}