{
  "contractName": "Expense",
  "abi": [
    {
      "constant": false,
      "inputs": [],
      "name": "approveExpense",
      "outputs": [],
      "payable": false,
      "stateMutability": "nonpayable",
      "type": "function"
    },
    {
      "constant": true,
      "inputs": [],
      "name": "getValue",
      "outputs": [
        {
          "internalType": "int256",
          "name": "value",
          "type": "int256"
        }
      ],
      "payable": false,
      "stateMutability": "view",
      "type": "function"
    },
    {
      "constant": true,
      "inputs": [],
      "name": "getApproved",
      "outputs": [
        {
          "internalType": "bool",
          "name": "isApproved",
          "type": "bool"
        }
      ],
      "payable": false,
      "stateMutability": "view",
      "type": "function"
    }
  ],
  "bytecode": "0x60806040527305867a49e08e81564bc3fd29bb34531dba2c9c316000806101000a81548173ffffffffffffffffffffffffffffffffffffffff021916908373ffffffffffffffffffffffffffffffffffffffff16021790555060008060146101000a81548160ff0219169083151502179055506103e860015534801561008457600080fd5b506101c4806100946000396000f3fe608060405234801561001057600080fd5b50600436106100415760003560e01c806306ec1ec0146100465780632096525514610050578063d07b77b51461006e575b600080fd5b61004e610090565b005b61005861016f565b6040518082815260200191505060405180910390f35b610076610179565b604051808215151515815260200191505060405180910390f35b6000809054906101000a900473ffffffffffffffffffffffffffffffffffffffff1673ffffffffffffffffffffffffffffffffffffffff163373ffffffffffffffffffffffffffffffffffffffff1614610152576040517f08c379a00000000000000000000000000000000000000000000000000000000081526004018080602001828103825260108152602001807f4e6f742074686520617070726f7665720000000000000000000000000000000081525060200191505060405180910390fd5b6001600060146101000a81548160ff021916908315150217905550565b6000600154905090565b60008060149054906101000a900460ff1690509056fea265627a7a7231582026f21ffbe583e638d976bc7b54e523a406ee8d81eff53d02b152b93fd8ce14e164736f6c63430005100032",
  "source": "// SPDX-License-Identifier: MIT\npragma solidity ^0.5.0;\n\ncontract Expense {\n    address private approver = 0x05867a49E08E81564bc3Fd29Bb34531Dba2C9c31;\n    bool private approved = false;\n    int256 private amount = 1000;\n\n    modifier onlyApprover() {\n        require(msg.sender == approver, \"Not the approver\");\n        _;\n    }\n\n    function approveExpense() public onlyApprover {\n        approved = true;\n    }\n\n    function getValue() public view returns (int256 value) {\n        return amount;\n    }\n\n    function getApproved() public view returns (bool isApproved) {\n        return approved;\n    }\n}\n",
  "sourcePath": "/Users/jakenoar/repos/truffle-lightweight/contracts/Expense.sol",
  "compiler": {
    "name": "solc",
    "version": "0.5.16+commit.9c3226ce.Emscripten.clang"
  },
  "schemaVersion": "3.4.16",
  "updatedAt": "2023-12-05T14:37:10.506Z",
  "networkType": "ethereum",
  "devdoc": {
    "methods": {}
  },
  "userdoc": {
    "methods": {}
  }
}