{
  "contractName": "ExpenseTracker",
  "abi": [
    {
      "anonymous": false,
      "inputs": [
        {
          "indexed": true,
          "internalType": "uint256",
          "name": "expenseId",
          "type": "uint256"
        },
        {
          "indexed": false,
          "internalType": "bool",
          "name": "approved",
          "type": "bool"
        }
      ],
      "name": "ExpenseApproved",
      "type": "event"
    },
    {
      "anonymous": false,
      "inputs": [
        {
          "indexed": true,
          "internalType": "uint256",
          "name": "expenseId",
          "type": "uint256"
        },
        {
          "indexed": false,
          "internalType": "uint256",
          "name": "amount",
          "type": "uint256"
        }
      ],
      "name": "ExpenseCreated",
      "type": "event"
    },
    {
      "inputs": [],
      "name": "expenseCount",
      "outputs": [
        {
          "internalType": "uint256",
          "name": "",
          "type": "uint256"
        }
      ],
      "stateMutability": "view",
      "type": "function"
    },
    {
      "inputs": [
        {
          "internalType": "uint256",
          "name": "",
          "type": "uint256"
        }
      ],
      "name": "expenses",
      "outputs": [
        {
          "internalType": "uint256",
          "name": "amount",
          "type": "uint256"
        },
        {
          "internalType": "string",
          "name": "description",
          "type": "string"
        },
        {
          "internalType": "string",
          "name": "payee",
          "type": "string"
        },
        {
          "internalType": "bool",
          "name": "approved",
          "type": "bool"
        }
      ],
      "stateMutability": "view",
      "type": "function"
    },
    {
      "inputs": [
        {
          "internalType": "uint256",
          "name": "_amount",
          "type": "uint256"
        },
        {
          "internalType": "string",
          "name": "_description",
          "type": "string"
        },
        {
          "internalType": "string",
          "name": "_payee",
          "type": "string"
        }
      ],
      "name": "createExpense",
      "outputs": [
        {
          "internalType": "uint256",
          "name": "",
          "type": "uint256"
        }
      ],
      "stateMutability": "nonpayable",
      "type": "function"
    },
    {
      "inputs": [
        {
          "internalType": "uint256",
          "name": "_expenseId",
          "type": "uint256"
        }
      ],
      "name": "approveExpense",
      "outputs": [
        {
          "internalType": "bool",
          "name": "",
          "type": "bool"
        }
      ],
      "stateMutability": "nonpayable",
      "type": "function"
    },
    {
      "inputs": [
        {
          "internalType": "uint256",
          "name": "_expenseId",
          "type": "uint256"
        }
      ],
      "name": "getExpenseAmount",
      "outputs": [
        {
          "internalType": "uint256",
          "name": "",
          "type": "uint256"
        }
      ],
      "stateMutability": "view",
      "type": "function"
    },
    {
      "inputs": [
        {
          "internalType": "uint256",
          "name": "_expenseId",
          "type": "uint256"
        }
      ],
      "name": "isExpenseApproved",
      "outputs": [
        {
          "internalType": "bool",
          "name": "",
          "type": "bool"
        }
      ],
      "stateMutability": "view",
      "type": "function"
    },
    {
      "inputs": [
        {
          "internalType": "uint256",
          "name": "_expenseId",
          "type": "uint256"
        }
      ],
      "name": "getExpenseDescription",
      "outputs": [
        {
          "internalType": "string",
          "name": "",
          "type": "string"
        }
      ],
      "stateMutability": "view",
      "type": "function"
    },
    {
      "inputs": [
        {
          "internalType": "uint256",
          "name": "_expenseId",
          "type": "uint256"
        }
      ],
      "name": "getExpensePayee",
      "outputs": [
        {
          "internalType": "string",
          "name": "",
          "type": "string"
        }
      ],
      "stateMutability": "view",
      "type": "function"
    }
  ],
  "bytecode": "0x608060405234801561001057600080fd5b50610ce8806100206000396000f3fe608060405234801561001057600080fd5b50600436106100885760003560e01c8063af4afe0a1161005b578063af4afe0a1461013b578063b579e7f11461016e578063f7db127e1461019e578063f9cd7978146101ce57610088565b80634e5877c41461008d57806352e7df5d146100bd578063732d995f146100db5780638503a40a1461010b575b600080fd5b6100a760048036038101906100a29190610938565b6101fe565b6040516100b49190610a9c565b60405180910390f35b6100c56102e9565b6040516100d29190610ade565b60405180910390f35b6100f560048036038101906100f09190610938565b6102ef565b6040516101029190610ade565b60405180910390f35b61012560048036038101906101209190610961565b610352565b6040516101329190610ade565b60405180910390f35b61015560048036038101906101509190610938565b6104d8565b6040516101659493929190610af9565b60405180910390f35b61018860048036038101906101839190610938565b610625565b6040516101959190610a81565b60405180910390f35b6101b860048036038101906101b39190610938565b6106db565b6040516101c59190610a81565b60405180910390f35b6101e860048036038101906101e39190610938565b61074b565b6040516101f59190610a9c565b60405180910390f35b60606001548210610244576040517f08c379a000000000000000000000000000000000000000000000000000000000815260040161023b90610abe565b60405180910390fd5b600080838152602001908152602001600020600101805461026490610bb1565b80601f016020809104026020016040519081016040528092919081815260200182805461029090610bb1565b80156102dd5780601f106102b2576101008083540402835291602001916102dd565b820191906000526020600020905b8154815290600101906020018083116102c057829003601f168201915b50505050509050919050565b60015481565b60006001548210610335576040517f08c379a000000000000000000000000000000000000000000000000000000000815260040161032c90610abe565b60405180910390fd5b600080838152602001908152602001600020600001549050919050565b6000806001600081548092919061036890610be3565b919050559050604051806080016040528088815260200187878080601f016020809104026020016040519081016040528093929190818152602001838380828437600081840152601f19601f82011690508083019250505050505050815260200185858080601f016020809104026020016040519081016040528093929190818152602001838380828437600081840152601f19601f82011690508083019250505050505050815260200160001515815250600080838152602001908152602001600020600082015181600001556020820151816001019080519060200190610452929190610836565b50604082015181600201908051906020019061046f929190610836565b5060608201518160030160006101000a81548160ff021916908315150217905550905050807f3858dc705496d9f9a2bdeef8f725b628983c5b59ea563e13bdfe68abe660355f886040516104c39190610ade565b60405180910390a28091505095945050505050565b600060205280600052604060002060009150905080600001549080600101805461050190610bb1565b80601f016020809104026020016040519081016040528092919081815260200182805461052d90610bb1565b801561057a5780601f1061054f5761010080835404028352916020019161057a565b820191906000526020600020905b81548152906001019060200180831161055d57829003601f168201915b50505050509080600201805461058f90610bb1565b80601f01602080910402602001604051908101604052809291908181526020018280546105bb90610bb1565b80156106085780601f106105dd57610100808354040283529160200191610608565b820191906000526020600020905b8154815290600101906020018083116105eb57829003601f168201915b5050505050908060030160009054906101000a900460ff16905084565b6000600154821061066b576040517f08c379a000000000000000000000000000000000000000000000000000000000815260040161066290610abe565b60405180910390fd5b600160008084815260200190815260200160002060030160006101000a81548160ff021916908315150217905550817f23c19de93ce378d27f3b34f74ae236838987d9179c902bca3cdc3bb93bd7314460016040516106ca9190610a81565b60405180910390a260019050919050565b60006001548210610721576040517f08c379a000000000000000000000000000000000000000000000000000000000815260040161071890610abe565b60405180910390fd5b60008083815260200190815260200160002060030160009054906101000a900460ff169050919050565b60606001548210610791576040517f08c379a000000000000000000000000000000000000000000000000000000000815260040161078890610abe565b60405180910390fd5b60008083815260200190815260200160002060020180546107b190610bb1565b80601f01602080910402602001604051908101604052809291908181526020018280546107dd90610bb1565b801561082a5780601f106107ff5761010080835404028352916020019161082a565b820191906000526020600020905b81548152906001019060200180831161080d57829003601f168201915b50505050509050919050565b82805461084290610bb1565b90600052602060002090601f01602090048101928261086457600085556108ab565b82601f1061087d57805160ff19168380011785556108ab565b828001600101855582156108ab579182015b828111156108aa57825182559160200191906001019061088f565b5b5090506108b891906108bc565b5090565b5b808211156108d55760008160009055506001016108bd565b5090565b60008083601f8401126108eb57600080fd5b8235905067ffffffffffffffff81111561090457600080fd5b60208301915083600182028301111561091c57600080fd5b9250929050565b60008135905061093281610c9b565b92915050565b60006020828403121561094a57600080fd5b600061095884828501610923565b91505092915050565b60008060008060006060868803121561097957600080fd5b600061098788828901610923565b955050602086013567ffffffffffffffff8111156109a457600080fd5b6109b0888289016108d9565b9450945050604086013567ffffffffffffffff8111156109cf57600080fd5b6109db888289016108d9565b92509250509295509295909350565b6109f381610b68565b82525050565b6000610a0482610b4c565b610a0e8185610b57565b9350610a1e818560208601610b7e565b610a2781610c8a565b840191505092915050565b6000610a3f601683610b57565b91507f457870656e736520646f6573206e6f74206578697374000000000000000000006000830152602082019050919050565b610a7b81610b74565b82525050565b6000602082019050610a9660008301846109ea565b92915050565b60006020820190508181036000830152610ab681846109f9565b905092915050565b60006020820190508181036000830152610ad781610a32565b9050919050565b6000602082019050610af36000830184610a72565b92915050565b6000608082019050610b0e6000830187610a72565b8181036020830152610b2081866109f9565b90508181036040830152610b3481856109f9565b9050610b4360608301846109ea565b95945050505050565b600081519050919050565b600082825260208201905092915050565b60008115159050919050565b6000819050919050565b60005b83811015610b9c578082015181840152602081019050610b81565b83811115610bab576000848401525b50505050565b60006002820490506001821680610bc957607f821691505b60208210811415610bdd57610bdc610c5b565b5b50919050565b6000610bee82610b74565b91507fffffffffffffffffffffffffffffffffffffffffffffffffffffffffffffffff821415610c2157610c20610c2c565b5b600182019050919050565b7f4e487b7100000000000000000000000000000000000000000000000000000000600052601160045260246000fd5b7f4e487b7100000000000000000000000000000000000000000000000000000000600052602260045260246000fd5b6000601f19601f8301169050919050565b610ca481610b74565b8114610caf57600080fd5b5056fea26469706673582212200592e88ea167acb411769ece721213d80d01acb7c5596d7e88620433d85760fd64736f6c63430008000033",
  "immutableReferences": {},
  "source": "// SPDX-License-Identifier: MIT\npragma solidity ^0.8.0;\n\n// import \"@openzeppelin/contracts/utils/Strings.sol\";\n\ncontract ExpenseTracker {\n    struct Expense {\n        uint256 amount;\n        string description;\n        string payee;\n        bool approved;\n    }\n\n\n    mapping(uint256 => Expense) public expenses;\n    uint256 public expenseCount;\n\n    event ExpenseCreated(uint256 indexed expenseId, uint256 amount);\n    event ExpenseApproved(uint256 indexed expenseId, bool approved);\n\n    function createExpense(uint256 _amount, string calldata _description, string calldata _payee) external returns (uint256){\n        uint256 expenseId = expenseCount++;\n        expenses[expenseId] = Expense(_amount, _description, _payee, false);\n        emit ExpenseCreated(expenseId, _amount);\n        return expenseId;\n    }\n\n    function approveExpense(uint256 _expenseId) external returns (bool){\n        require(_expenseId < expenseCount, \"Expense does not exist\");\n        expenses[_expenseId].approved = true;\n        emit ExpenseApproved(_expenseId, true);\n        return true;\n    }\n\n    function getExpenseAmount(uint256 _expenseId) external view returns (uint256) {\n        require(_expenseId < expenseCount, \"Expense does not exist\");\n        return expenses[_expenseId].amount;\n    }\n\n    function isExpenseApproved(uint256 _expenseId) external view returns (bool) {\n        require(_expenseId < expenseCount, \"Expense does not exist\");\n        return expenses[_expenseId].approved;\n    }\n\n    function getExpenseDescription(uint256 _expenseId) external view returns (string memory) {\n        require(_expenseId < expenseCount, \"Expense does not exist\");\n        return expenses[_expenseId].description;\n    }\n\n    function getExpensePayee(uint256 _expenseId) external view returns (string memory) {\n        require(_expenseId < expenseCount, \"Expense does not exist\");\n        return expenses[_expenseId].payee;\n    }\n\n    // function printExpense(uint256 _expenseId) external view returns (string memory) {\n    //     require(_expenseId < expenseCount, \"Expense does not exist\");\n    //     return string(abi.encodePacked(\"Expense ID: \", Strings.toString(_expenseId), \", Amount: \", Strings.toString(expenses[_expenseId].amount), \", Description: \", expenses[_expenseId].description, \", Payee: \", expenses[_expenseId].payee, \", Approved: \", expenses[_expenseId].approved ? \"true\" : \"false\"));\n    // }\n}\n",
  "sourcePath": "/Users/jakenoar/repos/truffle-lightweight/contracts/ExpenseTracker.sol",
  "compiler": {
    "name": "solc",
    "version": "0.8.0+commit.c7dfd78e.Emscripten.clang"
  },
  "schemaVersion": "3.4.16",
  "updatedAt": "2024-02-06T17:34:02.353Z",
  "devdoc": {
    "kind": "dev",
    "methods": {},
    "version": 1
  },
  "userdoc": {
    "kind": "user",
    "methods": {},
    "version": 1
  }
}