{
  "contractName": "ExpenseTracker",
  "abi": [
    {
      "anonymous": false,
      "inputs": [
        {
          "indexed": true,
          "internalType": "uint256",
          "name": "expenseId",
          "type": "uint256"
        },
        {
          "indexed": false,
          "internalType": "bool",
          "name": "approved",
          "type": "bool"
        },
        {
          "indexed": false,
          "internalType": "uint256",
          "name": "amount",
          "type": "uint256"
        },
        {
          "indexed": false,
          "internalType": "string",
          "name": "description",
          "type": "string"
        },
        {
          "indexed": false,
          "internalType": "string",
          "name": "payee",
          "type": "string"
        }
      ],
      "name": "ExpenseApproved",
      "type": "event"
    },
    {
      "anonymous": false,
      "inputs": [
        {
          "indexed": true,
          "internalType": "uint256",
          "name": "expenseId",
          "type": "uint256"
        },
        {
          "indexed": false,
          "internalType": "uint256",
          "name": "amount",
          "type": "uint256"
        }
      ],
      "name": "ExpenseCreated",
      "type": "event"
    },
    {
      "inputs": [],
      "name": "expenseCount",
      "outputs": [
        {
          "internalType": "uint256",
          "name": "",
          "type": "uint256"
        }
      ],
      "stateMutability": "view",
      "type": "function",
      "constant": true
    },
    {
      "inputs": [
        {
          "internalType": "uint256",
          "name": "",
          "type": "uint256"
        }
      ],
      "name": "expenses",
      "outputs": [
        {
          "internalType": "uint256",
          "name": "amount",
          "type": "uint256"
        },
        {
          "internalType": "string",
          "name": "description",
          "type": "string"
        },
        {
          "internalType": "string",
          "name": "payee",
          "type": "string"
        },
        {
          "internalType": "bool",
          "name": "approved",
          "type": "bool"
        }
      ],
      "stateMutability": "view",
      "type": "function",
      "constant": true
    },
    {
      "inputs": [
        {
          "internalType": "uint256",
          "name": "_amount",
          "type": "uint256"
        },
        {
          "internalType": "string",
          "name": "_description",
          "type": "string"
        },
        {
          "internalType": "string",
          "name": "_payee",
          "type": "string"
        }
      ],
      "name": "createExpense",
      "outputs": [
        {
          "internalType": "uint256",
          "name": "",
          "type": "uint256"
        }
      ],
      "stateMutability": "nonpayable",
      "type": "function"
    },
    {
      "inputs": [
        {
          "internalType": "uint256",
          "name": "_expenseId",
          "type": "uint256"
        }
      ],
      "name": "approveExpense",
      "outputs": [
        {
          "internalType": "bool",
          "name": "",
          "type": "bool"
        }
      ],
      "stateMutability": "nonpayable",
      "type": "function"
    },
    {
      "inputs": [
        {
          "internalType": "uint256",
          "name": "_expenseId",
          "type": "uint256"
        }
      ],
      "name": "getExpenseAmount",
      "outputs": [
        {
          "internalType": "uint256",
          "name": "",
          "type": "uint256"
        }
      ],
      "stateMutability": "view",
      "type": "function",
      "constant": true
    },
    {
      "inputs": [
        {
          "internalType": "uint256",
          "name": "_expenseId",
          "type": "uint256"
        }
      ],
      "name": "getExpenseStatus",
      "outputs": [
        {
          "internalType": "bool",
          "name": "",
          "type": "bool"
        }
      ],
      "stateMutability": "view",
      "type": "function",
      "constant": true
    },
    {
      "inputs": [
        {
          "internalType": "uint256",
          "name": "_expenseId",
          "type": "uint256"
        }
      ],
      "name": "getExpenseDescription",
      "outputs": [
        {
          "internalType": "string",
          "name": "",
          "type": "string"
        }
      ],
      "stateMutability": "view",
      "type": "function",
      "constant": true
    },
    {
      "inputs": [
        {
          "internalType": "uint256",
          "name": "_expenseId",
          "type": "uint256"
        }
      ],
      "name": "getExpensePayee",
      "outputs": [
        {
          "internalType": "string",
          "name": "",
          "type": "string"
        }
      ],
      "stateMutability": "view",
      "type": "function",
      "constant": true
    }
  ],
  "bytecode": "0x6080604052734c57009d9bd53a00f58b8c5568081c9065e43e0a600260006101000a81548173ffffffffffffffffffffffffffffffffffffffff021916908373ffffffffffffffffffffffffffffffffffffffff16021790555034801561006557600080fd5b50610e93806100756000396000f3fe608060405234801561001057600080fd5b50600436106100885760003560e01c80638503a40a1161005b5780638503a40a1461013b578063af4afe0a1461016b578063b579e7f11461019e578063f9cd7978146101ce57610088565b80634e5877c41461008d57806352e7df5d146100bd578063732d995f146100db57806374203e631461010b575b600080fd5b6100a760048036038101906100a291906109d5565b6101fe565b6040516100b49190610c32565b60405180910390f35b6100c56102e9565b6040516100d29190610c74565b60405180910390f35b6100f560048036038101906100f091906109d5565b6102ef565b6040516101029190610c74565b60405180910390f35b610125600480360381019061012091906109d5565b610352565b6040516101329190610bc4565b60405180910390f35b610155600480360381019061015091906109fe565b6103c2565b6040516101629190610c74565b60405180910390f35b610185600480360381019061018091906109d5565b610548565b6040516101959493929190610c8f565b60405180910390f35b6101b860048036038101906101b391906109d5565b610695565b6040516101c59190610bc4565b60405180910390f35b6101e860048036038101906101e391906109d5565b6107e8565b6040516101f59190610c32565b60405180910390f35b60606001548210610244576040517f08c379a000000000000000000000000000000000000000000000000000000000815260040161023b90610c54565b60405180910390fd5b600080838152602001908152602001600020600101805461026490610d5c565b80601f016020809104026020016040519081016040528092919081815260200182805461029090610d5c565b80156102dd5780601f106102b2576101008083540402835291602001916102dd565b820191906000526020600020905b8154815290600101906020018083116102c057829003601f168201915b50505050509050919050565b60015481565b60006001548210610335576040517f08c379a000000000000000000000000000000000000000000000000000000000815260040161032c90610c54565b60405180910390fd5b600080838152602001908152602001600020600001549050919050565b60006001548210610398576040517f08c379a000000000000000000000000000000000000000000000000000000000815260040161038f90610c54565b60405180910390fd5b60008083815260200190815260200160002060030160009054906101000a900460ff169050919050565b600080600160008154809291906103d890610d8e565b919050559050604051806080016040528088815260200187878080601f016020809104026020016040519081016040528093929190818152602001838380828437600081840152601f19601f82011690508083019250505050505050815260200185858080601f016020809104026020016040519081016040528093929190818152602001838380828437600081840152601f19601f820116905080830192505050505050508152602001600015158152506000808381526020019081526020016000206000820151816000015560208201518160010190805190602001906104c29291906108d3565b5060408201518160020190805190602001906104df9291906108d3565b5060608201518160030160006101000a81548160ff021916908315150217905550905050807f3858dc705496d9f9a2bdeef8f725b628983c5b59ea563e13bdfe68abe660355f886040516105339190610c74565b60405180910390a28091505095945050505050565b600060205280600052604060002060009150905080600001549080600101805461057190610d5c565b80601f016020809104026020016040519081016040528092919081815260200182805461059d90610d5c565b80156105ea5780601f106105bf576101008083540402835291602001916105ea565b820191906000526020600020905b8154815290600101906020018083116105cd57829003601f168201915b5050505050908060020180546105ff90610d5c565b80601f016020809104026020016040519081016040528092919081815260200182805461062b90610d5c565b80156106785780601f1061064d57610100808354040283529160200191610678565b820191906000526020600020905b81548152906001019060200180831161065b57829003601f168201915b5050505050908060030160009054906101000a900460ff16905084565b6000600260009054906101000a900473ffffffffffffffffffffffffffffffffffffffff1673ffffffffffffffffffffffffffffffffffffffff163373ffffffffffffffffffffffffffffffffffffffff16146106f157600080fd5b6001548210610735576040517f08c379a000000000000000000000000000000000000000000000000000000000815260040161072c90610c54565b60405180910390fd5b600160008084815260200190815260200160002060030160006101000a81548160ff021916908315150217905550817f0ab535dbbd7757abed4d56da0468efd8bf1f7d6f0b7a54abbba5ffb1a72ea8b16001600080868152602001908152602001600020600001546000808781526020019081526020016000206001016000808881526020019081526020016000206002016040516107d79493929190610bdf565b60405180910390a260019050919050565b6060600154821061082e576040517f08c379a000000000000000000000000000000000000000000000000000000000815260040161082590610c54565b60405180910390fd5b600080838152602001908152602001600020600201805461084e90610d5c565b80601f016020809104026020016040519081016040528092919081815260200182805461087a90610d5c565b80156108c75780601f1061089c576101008083540402835291602001916108c7565b820191906000526020600020905b8154815290600101906020018083116108aa57829003601f168201915b50505050509050919050565b8280546108df90610d5c565b90600052602060002090601f0160209004810192826109015760008555610948565b82601f1061091a57805160ff1916838001178555610948565b82800160010185558215610948579182015b8281111561094757825182559160200191906001019061092c565b5b5090506109559190610959565b5090565b5b8082111561097257600081600090555060010161095a565b5090565b60008083601f84011261098857600080fd5b8235905067ffffffffffffffff8111156109a157600080fd5b6020830191508360018202830111156109b957600080fd5b9250929050565b6000813590506109cf81610e46565b92915050565b6000602082840312156109e757600080fd5b60006109f5848285016109c0565b91505092915050565b600080600080600060608688031215610a1657600080fd5b6000610a24888289016109c0565b955050602086013567ffffffffffffffff811115610a4157600080fd5b610a4d88828901610976565b9450945050604086013567ffffffffffffffff811115610a6c57600080fd5b610a7888828901610976565b92509250509295509295909350565b610a9081610d13565b82525050565b6000610aa182610cf7565b610aab8185610d02565b9350610abb818560208601610d29565b610ac481610e35565b840191505092915050565b60008154610adc81610d5c565b610ae68186610d02565b94506001821660008114610b015760018114610b1357610b46565b60ff1983168652602086019350610b46565b610b1c85610ce2565b60005b83811015610b3e57815481890152600182019150602081019050610b1f565b808801955050505b50505092915050565b6000610b5c602583610d02565b91507f457870656e736520646f6573206e6f7420657869737420696e2074686520737960008301527f7374656d210000000000000000000000000000000000000000000000000000006020830152604082019050919050565b610bbe81610d1f565b82525050565b6000602082019050610bd96000830184610a87565b92915050565b6000608082019050610bf46000830187610a87565b610c016020830186610bb5565b8181036040830152610c138185610acf565b90508181036060830152610c278184610acf565b905095945050505050565b60006020820190508181036000830152610c4c8184610a96565b905092915050565b60006020820190508181036000830152610c6d81610b4f565b9050919050565b6000602082019050610c896000830184610bb5565b92915050565b6000608082019050610ca46000830187610bb5565b8181036020830152610cb68186610a96565b90508181036040830152610cca8185610a96565b9050610cd96060830184610a87565b95945050505050565b60008190508160005260206000209050919050565b600081519050919050565b600082825260208201905092915050565b60008115159050919050565b6000819050919050565b60005b83811015610d47578082015181840152602081019050610d2c565b83811115610d56576000848401525b50505050565b60006002820490506001821680610d7457607f821691505b60208210811415610d8857610d87610e06565b5b50919050565b6000610d9982610d1f565b91507fffffffffffffffffffffffffffffffffffffffffffffffffffffffffffffffff821415610dcc57610dcb610dd7565b5b600182019050919050565b7f4e487b7100000000000000000000000000000000000000000000000000000000600052601160045260246000fd5b7f4e487b7100000000000000000000000000000000000000000000000000000000600052602260045260246000fd5b6000601f19601f8301169050919050565b610e4f81610d1f565b8114610e5a57600080fd5b5056fea2646970667358221220b23c42c7a1484360be6acf39d79e499f03c74855c72d8d33cdf18d7f63e454f064736f6c63430008000033",
  "immutableReferences": {},
  "source": "// SPDX-License-Identifier: MIT\n// note: need to change boolean approved into unint256 status ( approved = 1, rejected = 2, pending = 0)\n\n\npragma solidity ^0.8.0;\n\ncontract ExpenseTracker {\n\n    struct Expense {\n        uint256 amount;\n        string description;\n        string payee;\n        bool approved;\n    }\n\n\n    mapping(uint256 => Expense) public expenses;\n    uint256 public expenseCount;\n\n    address private approverAddress = 0x4c57009d9bD53A00F58b8C5568081c9065E43E0A;\n\n    event ExpenseCreated(uint256 indexed expenseId, uint256 amount);\n    event ExpenseApproved(uint256 indexed expenseId, bool approved, uint256 amount, string description, string payee);\n\n    function createExpense(uint256 _amount, string calldata _description, string calldata _payee) external returns (uint256){\n        uint256 expenseId = expenseCount++;\n        expenses[expenseId] = Expense(_amount, _description, _payee, false);\n        emit ExpenseCreated(expenseId, _amount);\n        return expenseId;\n    }\n\n    modifier onlyApprover() {\n        require(msg.sender == approverAddress);\n        _;\n    }\n\n    function approveExpense(uint256 _expenseId) external onlyApprover returns (bool){\n        require(_expenseId < expenseCount, \"Expense does not exist in the system!\");\n        expenses[_expenseId].approved = true;\n        emit ExpenseApproved(_expenseId, true, expenses[_expenseId].amount, expenses[_expenseId].description, expenses[_expenseId].payee);\n        return true;\n    }\n\n    function getExpenseAmount(uint256 _expenseId) external view returns (uint256) {\n        require(_expenseId < expenseCount, \"Expense does not exist in the system!\");\n        return expenses[_expenseId].amount;\n    }\n\n    function getExpenseStatus(uint256 _expenseId) external view returns (bool) {\n        require(_expenseId < expenseCount, \"Expense does not exist in the system!\");\n        return expenses[_expenseId].approved;\n    }\n\n    function getExpenseDescription(uint256 _expenseId) external view returns (string memory) {\n        require(_expenseId < expenseCount, \"Expense does not exist in the system!\");\n        return expenses[_expenseId].description;\n    }\n\n    function getExpensePayee(uint256 _expenseId) external view returns (string memory) {\n        require(_expenseId < expenseCount, \"Expense does not exist in the system!\");\n        return expenses[_expenseId].payee;\n    }\n    \n}",
  "sourcePath": "/Users/jakenoar/repos/truffle-lightweight/contracts/ExpenseTracker.sol",
  "compiler": {
    "name": "solc",
    "version": "0.8.0+commit.c7dfd78e.Emscripten.clang"
  },
  "schemaVersion": "3.4.16",
  "updatedAt": "2024-02-16T17:21:14.327Z",
  "networkType": "ethereum",
  "devdoc": {
    "kind": "dev",
    "methods": {},
    "version": 1
  },
  "userdoc": {
    "kind": "user",
    "methods": {},
    "version": 1
  }
}