{
  "_format": "hh-sol-artifact-1",
  "contractName": "ExpenseTracker",
  "sourceName": "contracts/ExpenseTracker.sol",
  "abi": [
    {
      "inputs": [
        {
          "internalType": "string",
          "name": "_CouncilName",
          "type": "string"
        },
        {
          "internalType": "uint256",
          "name": "_CouncilIdentifier",
          "type": "uint256"
        },
        {
          "internalType": "string",
          "name": "_ProjectName",
          "type": "string"
        },
        {
          "internalType": "uint256",
          "name": "_ProjectIdentifier",
          "type": "uint256"
        },
        {
          "internalType": "uint256",
          "name": "_ProjectBudget",
          "type": "uint256"
        }
      ],
      "stateMutability": "nonpayable",
      "type": "constructor"
    },
    {
      "anonymous": false,
      "inputs": [
        {
          "indexed": false,
          "internalType": "uint256",
          "name": "CouncilIdentifier",
          "type": "uint256"
        },
        {
          "indexed": false,
          "internalType": "uint256",
          "name": "ProjectIdentifier",
          "type": "uint256"
        },
        {
          "indexed": false,
          "internalType": "uint256",
          "name": "expenseCount",
          "type": "uint256"
        },
        {
          "indexed": false,
          "internalType": "uint256",
          "name": "amount",
          "type": "uint256"
        },
        {
          "indexed": false,
          "internalType": "string",
          "name": "description",
          "type": "string"
        },
        {
          "indexed": false,
          "internalType": "string",
          "name": "IBAN",
          "type": "string"
        },
        {
          "indexed": false,
          "internalType": "address",
          "name": "payee_identifier",
          "type": "address"
        }
      ],
      "name": "ExpenseApproved",
      "type": "event"
    },
    {
      "anonymous": false,
      "inputs": [
        {
          "indexed": false,
          "internalType": "uint256",
          "name": "CouncilIdentifier",
          "type": "uint256"
        },
        {
          "indexed": false,
          "internalType": "uint256",
          "name": "ProjectIdentifier",
          "type": "uint256"
        },
        {
          "indexed": false,
          "internalType": "uint256",
          "name": "expenseCount",
          "type": "uint256"
        },
        {
          "indexed": false,
          "internalType": "uint256",
          "name": "amount",
          "type": "uint256"
        },
        {
          "indexed": false,
          "internalType": "string",
          "name": "description",
          "type": "string"
        },
        {
          "indexed": false,
          "internalType": "string",
          "name": "IBAN",
          "type": "string"
        },
        {
          "indexed": false,
          "internalType": "address",
          "name": "payee_identifier",
          "type": "address"
        }
      ],
      "name": "ExpenseCreated",
      "type": "event"
    },
    {
      "anonymous": false,
      "inputs": [
        {
          "indexed": false,
          "internalType": "uint256",
          "name": "CouncilIdentifier",
          "type": "uint256"
        },
        {
          "indexed": false,
          "internalType": "uint256",
          "name": "ProjectIdentifier",
          "type": "uint256"
        },
        {
          "indexed": false,
          "internalType": "uint256",
          "name": "expenseCount",
          "type": "uint256"
        },
        {
          "indexed": false,
          "internalType": "uint256",
          "name": "amount",
          "type": "uint256"
        },
        {
          "indexed": false,
          "internalType": "string",
          "name": "description",
          "type": "string"
        },
        {
          "indexed": false,
          "internalType": "string",
          "name": "IBAN",
          "type": "string"
        },
        {
          "indexed": false,
          "internalType": "address",
          "name": "payee_identifier",
          "type": "address"
        }
      ],
      "name": "ExpenseRejected",
      "type": "event"
    },
    {
      "inputs": [],
      "name": "CouncilIdentifier",
      "outputs": [
        {
          "internalType": "uint256",
          "name": "",
          "type": "uint256"
        }
      ],
      "stateMutability": "view",
      "type": "function"
    },
    {
      "inputs": [],
      "name": "CouncilName",
      "outputs": [
        {
          "internalType": "string",
          "name": "",
          "type": "string"
        }
      ],
      "stateMutability": "view",
      "type": "function"
    },
    {
      "inputs": [],
      "name": "ProjectBudget",
      "outputs": [
        {
          "internalType": "uint256",
          "name": "",
          "type": "uint256"
        }
      ],
      "stateMutability": "view",
      "type": "function"
    },
    {
      "inputs": [],
      "name": "ProjectIdentifier",
      "outputs": [
        {
          "internalType": "uint256",
          "name": "",
          "type": "uint256"
        }
      ],
      "stateMutability": "view",
      "type": "function"
    },
    {
      "inputs": [],
      "name": "ProjectName",
      "outputs": [
        {
          "internalType": "string",
          "name": "",
          "type": "string"
        }
      ],
      "stateMutability": "view",
      "type": "function"
    },
    {
      "inputs": [
        {
          "internalType": "address",
          "name": "_payee",
          "type": "address"
        }
      ],
      "name": "addPayee",
      "outputs": [],
      "stateMutability": "nonpayable",
      "type": "function"
    },
    {
      "inputs": [
        {
          "internalType": "uint256",
          "name": "_expenseId",
          "type": "uint256"
        }
      ],
      "name": "approveExpense",
      "outputs": [],
      "stateMutability": "nonpayable",
      "type": "function"
    },
    {
      "inputs": [],
      "name": "approverAddress",
      "outputs": [
        {
          "internalType": "address",
          "name": "",
          "type": "address"
        }
      ],
      "stateMutability": "view",
      "type": "function"
    },
    {
      "inputs": [
        {
          "internalType": "uint256",
          "name": "_amount",
          "type": "uint256"
        },
        {
          "internalType": "string",
          "name": "_description",
          "type": "string"
        },
        {
          "internalType": "string",
          "name": "_IBAN",
          "type": "string"
        }
      ],
      "name": "createExpense",
      "outputs": [],
      "stateMutability": "nonpayable",
      "type": "function"
    },
    {
      "inputs": [],
      "name": "expenseCount",
      "outputs": [
        {
          "internalType": "uint256",
          "name": "",
          "type": "uint256"
        }
      ],
      "stateMutability": "view",
      "type": "function"
    },
    {
      "inputs": [
        {
          "internalType": "uint256",
          "name": "",
          "type": "uint256"
        }
      ],
      "name": "expenses",
      "outputs": [
        {
          "internalType": "uint256",
          "name": "id",
          "type": "uint256"
        },
        {
          "internalType": "uint256",
          "name": "amount",
          "type": "uint256"
        },
        {
          "internalType": "string",
          "name": "description",
          "type": "string"
        },
        {
          "internalType": "string",
          "name": "IBAN",
          "type": "string"
        },
        {
          "internalType": "address",
          "name": "payee_identifier",
          "type": "address"
        },
        {
          "internalType": "enum ExpenseTracker.Status",
          "name": "status",
          "type": "uint8"
        }
      ],
      "stateMutability": "view",
      "type": "function"
    },
    {
      "inputs": [
        {
          "internalType": "uint256",
          "name": "_expenseId",
          "type": "uint256"
        }
      ],
      "name": "getExpenseAmount",
      "outputs": [
        {
          "internalType": "uint256",
          "name": "",
          "type": "uint256"
        }
      ],
      "stateMutability": "view",
      "type": "function"
    },
    {
      "inputs": [],
      "name": "getExpenseCount",
      "outputs": [
        {
          "internalType": "uint256",
          "name": "",
          "type": "uint256"
        }
      ],
      "stateMutability": "view",
      "type": "function"
    },
    {
      "inputs": [
        {
          "internalType": "uint256",
          "name": "_expenseId",
          "type": "uint256"
        }
      ],
      "name": "getExpenseDescription",
      "outputs": [
        {
          "internalType": "string",
          "name": "",
          "type": "string"
        }
      ],
      "stateMutability": "view",
      "type": "function"
    },
    {
      "inputs": [
        {
          "internalType": "uint256",
          "name": "_expenseId",
          "type": "uint256"
        }
      ],
      "name": "getExpenseIBAN",
      "outputs": [
        {
          "internalType": "string",
          "name": "",
          "type": "string"
        }
      ],
      "stateMutability": "view",
      "type": "function"
    },
    {
      "inputs": [
        {
          "internalType": "uint256",
          "name": "_expenseId",
          "type": "uint256"
        }
      ],
      "name": "getExpensePayeeIdentifier",
      "outputs": [
        {
          "internalType": "address",
          "name": "",
          "type": "address"
        }
      ],
      "stateMutability": "view",
      "type": "function"
    },
    {
      "inputs": [
        {
          "internalType": "uint256",
          "name": "_expenseId",
          "type": "uint256"
        }
      ],
      "name": "getExpenseStatus",
      "outputs": [
        {
          "internalType": "string",
          "name": "",
          "type": "string"
        }
      ],
      "stateMutability": "view",
      "type": "function"
    },
    {
      "inputs": [
        {
          "internalType": "address",
          "name": "",
          "type": "address"
        }
      ],
      "name": "knownPayees",
      "outputs": [
        {
          "internalType": "bool",
          "name": "",
          "type": "bool"
        }
      ],
      "stateMutability": "view",
      "type": "function"
    },
    {
      "inputs": [
        {
          "internalType": "uint256",
          "name": "_expenseId",
          "type": "uint256"
        }
      ],
      "name": "rejectExpense",
      "outputs": [],
      "stateMutability": "nonpayable",
      "type": "function"
    },
    {
      "inputs": [
        {
          "internalType": "address",
          "name": "_payee",
          "type": "address"
        }
      ],
      "name": "removePayee",
      "outputs": [],
      "stateMutability": "nonpayable",
      "type": "function"
    }
  ],
  "bytecode": "0x60806040523480156200001157600080fd5b506040516200257c3803806200257c833981810160405281019062000037919062000289565b336000806101000a81548173ffffffffffffffffffffffffffffffffffffffff021916908373ffffffffffffffffffffffffffffffffffffffff160217905550846001908162000088919062000590565b50836002819055508260039081620000a1919062000590565b508160048190555080600581905550505050505062000677565b6000604051905090565b600080fd5b600080fd5b600080fd5b600080fd5b6000601f19601f8301169050919050565b7f4e487b7100000000000000000000000000000000000000000000000000000000600052604160045260246000fd5b6200012482620000d9565b810181811067ffffffffffffffff82111715620001465762000145620000ea565b5b80604052505050565b60006200015b620000bb565b905062000169828262000119565b919050565b600067ffffffffffffffff8211156200018c576200018b620000ea565b5b6200019782620000d9565b9050602081019050919050565b60005b83811015620001c4578082015181840152602081019050620001a7565b60008484015250505050565b6000620001e7620001e1846200016e565b6200014f565b905082815260208101848484011115620002065762000205620000d4565b5b62000213848285620001a4565b509392505050565b600082601f830112620002335762000232620000cf565b5b815162000245848260208601620001d0565b91505092915050565b6000819050919050565b62000263816200024e565b81146200026f57600080fd5b50565b600081519050620002838162000258565b92915050565b600080600080600060a08688031215620002a857620002a7620000c5565b5b600086015167ffffffffffffffff811115620002c957620002c8620000ca565b5b620002d7888289016200021b565b9550506020620002ea8882890162000272565b945050604086015167ffffffffffffffff8111156200030e576200030d620000ca565b5b6200031c888289016200021b565b93505060606200032f8882890162000272565b9250506080620003428882890162000272565b9150509295509295909350565b600081519050919050565b7f4e487b7100000000000000000000000000000000000000000000000000000000600052602260045260246000fd5b60006002820490506001821680620003a257607f821691505b602082108103620003b857620003b76200035a565b5b50919050565b60008190508160005260206000209050919050565b60006020601f8301049050919050565b600082821b905092915050565b600060088302620004227fffffffffffffffffffffffffffffffffffffffffffffffffffffffffffffffff82620003e3565b6200042e8683620003e3565b95508019841693508086168417925050509392505050565b6000819050919050565b6000620004716200046b62000465846200024e565b62000446565b6200024e565b9050919050565b6000819050919050565b6200048d8362000450565b620004a56200049c8262000478565b848454620003f0565b825550505050565b600090565b620004bc620004ad565b620004c981848462000482565b505050565b5b81811015620004f157620004e5600082620004b2565b600181019050620004cf565b5050565b601f82111562000540576200050a81620003be565b6200051584620003d3565b8101602085101562000525578190505b6200053d6200053485620003d3565b830182620004ce565b50505b505050565b600082821c905092915050565b6000620005656000198460080262000545565b1980831691505092915050565b600062000580838362000552565b9150826002028217905092915050565b6200059b826200034f565b67ffffffffffffffff811115620005b757620005b6620000ea565b5b620005c3825462000389565b620005d0828285620004f5565b600060209050601f831160018114620006085760008415620005f3578287015190505b620005ff858262000572565b8655506200066f565b601f1984166200061886620003be565b60005b8281101562000642578489015182556001820191506020850194506020810190506200061b565b868310156200066257848901516200065e601f89168262000552565b8355505b6001600288020188555050505b505050505050565b611ef580620006876000396000f3fe608060405234801561001057600080fd5b506004361061012c5760003560e01c80638c912864116100ad578063d5f9e6c711610071578063d5f9e6c714610370578063dce59c001461038e578063e93ca63c146103aa578063eed034c3146103c8578063f4b88300146103e45761012c565b80638c912864146102b357806398763387146102e3578063af4afe0a14610301578063b579e7f114610336578063bcf04ea3146103525761012c565b8063732d995f116100f4578063732d995f146101e957806374203e6314610219578063774f33181461024957806380827c07146102675780638503a40a146102975761012c565b8063215d53fd146101315780633ed35855146101615780634e5877c41461017d57806352e7df5d146101ad5780636632375b146101cb575b600080fd5b61014b600480360381019061014691906113cd565b610402565b604051610158919061143b565b60405180910390f35b61017b60048036038101906101769190611482565b610489565b005b610197600480360381019061019291906113cd565b610572565b6040516101a4919061153f565b60405180910390f35b6101b5610661565b6040516101c29190611570565b60405180910390f35b6101d3610667565b6040516101e09190611570565b60405180910390f35b61020360048036038101906101fe91906113cd565b61066d565b6040516102109190611570565b60405180910390f35b610233600480360381019061022e91906113cd565b6106d4565b604051610240919061153f565b60405180910390f35b610251610873565b60405161025e919061153f565b60405180910390f35b610281600480360381019061027c9190611482565b610901565b60405161028e91906115a6565b60405180910390f35b6102b160048036038101906102ac9190611626565b610921565b005b6102cd60048036038101906102c891906113cd565b610bc8565b6040516102da919061153f565b60405180910390f35b6102eb610cb7565b6040516102f89190611570565b60405180910390f35b61031b600480360381019061031691906113cd565b610cbd565b60405161032d96959493929190611732565b60405180910390f35b610350600480360381019061034b91906113cd565b610e36565b005b61035a61100c565b6040516103679190611570565b60405180910390f35b610378611016565b604051610385919061153f565b60405180910390f35b6103a860048036038101906103a39190611482565b6110a4565b005b6103b261118d565b6040516103bf9190611570565b60405180910390f35b6103e260048036038101906103dd91906113cd565b611193565b005b6103ec611369565b6040516103f9919061143b565b60405180910390f35b60008160075481111561044a576040517f08c379a000000000000000000000000000000000000000000000000000000000815260040161044190611813565b60405180910390fd5b6006600084815260200190815260200160002060040160009054906101000a900473ffffffffffffffffffffffffffffffffffffffff16915050919050565b60008054906101000a900473ffffffffffffffffffffffffffffffffffffffff1673ffffffffffffffffffffffffffffffffffffffff163373ffffffffffffffffffffffffffffffffffffffff1614610517576040517f08c379a000000000000000000000000000000000000000000000000000000000815260040161050e906118a5565b60405180910390fd5b6000600860008373ffffffffffffffffffffffffffffffffffffffff1673ffffffffffffffffffffffffffffffffffffffff16815260200190815260200160002060006101000a81548160ff02191690831515021790555050565b6060816007548111156105ba576040517f08c379a00000000000000000000000000000000000000000000000000000000081526004016105b190611813565b60405180910390fd5b6006600084815260200190815260200160002060020180546105db906118f4565b80601f0160208091040260200160405190810160405280929190818152602001828054610607906118f4565b80156106545780601f1061062957610100808354040283529160200191610654565b820191906000526020600020905b81548152906001019060200180831161063757829003601f168201915b5050505050915050919050565b60075481565b60055481565b6000816007548111156106b5576040517f08c379a00000000000000000000000000000000000000000000000000000000081526004016106ac90611813565b60405180910390fd5b6006600084815260200190815260200160002060010154915050919050565b60608160075481111561071c576040517f08c379a000000000000000000000000000000000000000000000000000000000815260040161071390611813565b60405180910390fd5b600060028111156107305761072f6116bb565b5b6006600085815260200190815260200160002060040160149054906101000a900460ff166002811115610766576107656116bb565b5b036107a8576040518060400160405280600781526020017f50656e64696e6700000000000000000000000000000000000000000000000000815250915061086d565b600160028111156107bc576107bb6116bb565b5b6006600085815260200190815260200160002060040160149054906101000a900460ff1660028111156107f2576107f16116bb565b5b03610834576040518060400160405280600881526020017f417070726f766564000000000000000000000000000000000000000000000000815250915061086d565b6040518060400160405280600881526020017f52656a656374656400000000000000000000000000000000000000000000000081525091505b50919050565b60018054610880906118f4565b80601f01602080910402602001604051908101604052809291908181526020018280546108ac906118f4565b80156108f95780601f106108ce576101008083540402835291602001916108f9565b820191906000526020600020905b8154815290600101906020018083116108dc57829003601f168201915b505050505081565b60086020528060005260406000206000915054906101000a900460ff1681565b600860003373ffffffffffffffffffffffffffffffffffffffff1673ffffffffffffffffffffffffffffffffffffffff16815260200190815260200160002060009054906101000a900460ff166109ad576040517f08c379a00000000000000000000000000000000000000000000000000000000081526004016109a4906119bd565b60405180910390fd5b6040518060c00160405280600754815260200186815260200185858080601f016020809104026020016040519081016040528093929190818152602001838380828437600081840152601f19601f82011690508083019250505050505050815260200183838080601f016020809104026020016040519081016040528093929190818152602001838380828437600081840152601f19601f8201169050808301925050505050505081526020013373ffffffffffffffffffffffffffffffffffffffff16815260200160006002811115610a8a57610a896116bb565b5b81525060066000600754815260200190815260200160002060008201518160000155602082015181600101556040820151816002019081610acb9190611bb8565b506060820151816003019081610ae19190611bb8565b5060808201518160040160006101000a81548173ffffffffffffffffffffffffffffffffffffffff021916908373ffffffffffffffffffffffffffffffffffffffff16021790555060a08201518160040160146101000a81548160ff02191690836002811115610b5457610b536116bb565b5b02179055509050507f8a0c64a604cd5a3eec873ceb3e6d2787375f45f8dc44aee53b1f675ae1d24c0f600254600454600754888888888833604051610ba199989796959493929190611cc6565b60405180910390a160076000815480929190610bbc90611d76565b91905055505050505050565b606081600754811115610c10576040517f08c379a0000000000000000000000000000000000000000000000000000000008152600401610c0790611813565b60405180910390fd5b600660008481526020019081526020016000206003018054610c31906118f4565b80601f0160208091040260200160405190810160405280929190818152602001828054610c5d906118f4565b8015610caa5780601f10610c7f57610100808354040283529160200191610caa565b820191906000526020600020905b815481529060010190602001808311610c8d57829003601f168201915b5050505050915050919050565b60025481565b6006602052806000526040600020600091509050806000015490806001015490806002018054610cec906118f4565b80601f0160208091040260200160405190810160405280929190818152602001828054610d18906118f4565b8015610d655780601f10610d3a57610100808354040283529160200191610d65565b820191906000526020600020905b815481529060010190602001808311610d4857829003601f168201915b505050505090806003018054610d7a906118f4565b80601f0160208091040260200160405190810160405280929190818152602001828054610da6906118f4565b8015610df35780601f10610dc857610100808354040283529160200191610df3565b820191906000526020600020905b815481529060010190602001808311610dd657829003601f168201915b5050505050908060040160009054906101000a900473ffffffffffffffffffffffffffffffffffffffff16908060040160149054906101000a900460ff16905086565b60008054906101000a900473ffffffffffffffffffffffffffffffffffffffff1673ffffffffffffffffffffffffffffffffffffffff163373ffffffffffffffffffffffffffffffffffffffff1614610ec4576040517f08c379a0000000000000000000000000000000000000000000000000000000008152600401610ebb906118a5565b60405180910390fd5b80600754811115610f0a576040517f08c379a0000000000000000000000000000000000000000000000000000000008152600401610f0190611813565b60405180910390fd5b60016006600084815260200190815260200160002060040160146101000a81548160ff02191690836002811115610f4457610f436116bb565b5b02179055507fc872629649dd8a0103ad5c2b693bfa05ce644fc2f16480f31ab48b4d8222dee260025460045460075460066000878152602001908152602001600020600101546006600088815260200190815260200160002060020160066000898152602001908152602001600020600301600660008a815260200190815260200160002060040160009054906101000a900473ffffffffffffffffffffffffffffffffffffffff166040516110009796959493929190611e42565b60405180910390a15050565b6000600754905090565b60038054611023906118f4565b80601f016020809104026020016040519081016040528092919081815260200182805461104f906118f4565b801561109c5780601f106110715761010080835404028352916020019161109c565b820191906000526020600020905b81548152906001019060200180831161107f57829003601f168201915b505050505081565b60008054906101000a900473ffffffffffffffffffffffffffffffffffffffff1673ffffffffffffffffffffffffffffffffffffffff163373ffffffffffffffffffffffffffffffffffffffff1614611132576040517f08c379a0000000000000000000000000000000000000000000000000000000008152600401611129906118a5565b60405180910390fd5b6001600860008373ffffffffffffffffffffffffffffffffffffffff1673ffffffffffffffffffffffffffffffffffffffff16815260200190815260200160002060006101000a81548160ff02191690831515021790555050565b60045481565b60008054906101000a900473ffffffffffffffffffffffffffffffffffffffff1673ffffffffffffffffffffffffffffffffffffffff163373ffffffffffffffffffffffffffffffffffffffff1614611221576040517f08c379a0000000000000000000000000000000000000000000000000000000008152600401611218906118a5565b60405180910390fd5b80600754811115611267576040517f08c379a000000000000000000000000000000000000000000000000000000000815260040161125e90611813565b60405180910390fd5b60026006600084815260200190815260200160002060040160146101000a81548160ff021916908360028111156112a1576112a06116bb565b5b02179055507f49e892a46b819dcf0b7b0c1f9360c2faa3322dd099001947290dc80ef1b7119e60025460045460075460066000878152602001908152602001600020600101546006600088815260200190815260200160002060020160066000898152602001908152602001600020600301600660008a815260200190815260200160002060040160009054906101000a900473ffffffffffffffffffffffffffffffffffffffff1660405161135d9796959493929190611e42565b60405180910390a15050565b60008054906101000a900473ffffffffffffffffffffffffffffffffffffffff1681565b600080fd5b600080fd5b6000819050919050565b6113aa81611397565b81146113b557600080fd5b50565b6000813590506113c7816113a1565b92915050565b6000602082840312156113e3576113e261138d565b5b60006113f1848285016113b8565b91505092915050565b600073ffffffffffffffffffffffffffffffffffffffff82169050919050565b6000611425826113fa565b9050919050565b6114358161141a565b82525050565b6000602082019050611450600083018461142c565b92915050565b61145f8161141a565b811461146a57600080fd5b50565b60008135905061147c81611456565b92915050565b6000602082840312156114985761149761138d565b5b60006114a68482850161146d565b91505092915050565b600081519050919050565b600082825260208201905092915050565b60005b838110156114e95780820151818401526020810190506114ce565b60008484015250505050565b6000601f19601f8301169050919050565b6000611511826114af565b61151b81856114ba565b935061152b8185602086016114cb565b611534816114f5565b840191505092915050565b600060208201905081810360008301526115598184611506565b905092915050565b61156a81611397565b82525050565b60006020820190506115856000830184611561565b92915050565b60008115159050919050565b6115a08161158b565b82525050565b60006020820190506115bb6000830184611597565b92915050565b600080fd5b600080fd5b600080fd5b60008083601f8401126115e6576115e56115c1565b5b8235905067ffffffffffffffff811115611603576116026115c6565b5b60208301915083600182028301111561161f5761161e6115cb565b5b9250929050565b6000806000806000606086880312156116425761164161138d565b5b6000611650888289016113b8565b955050602086013567ffffffffffffffff81111561167157611670611392565b5b61167d888289016115d0565b9450945050604086013567ffffffffffffffff8111156116a05761169f611392565b5b6116ac888289016115d0565b92509250509295509295909350565b7f4e487b7100000000000000000000000000000000000000000000000000000000600052602160045260246000fd5b600381106116fb576116fa6116bb565b5b50565b600081905061170c826116ea565b919050565b600061171c826116fe565b9050919050565b61172c81611711565b82525050565b600060c0820190506117476000830189611561565b6117546020830188611561565b81810360408301526117668187611506565b9050818103606083015261177a8186611506565b9050611789608083018561142c565b61179660a0830184611723565b979650505050505050565b7f457870656e736520646f6573206e6f7420657869737420696e2074686520737960008201527f7374656d21000000000000000000000000000000000000000000000000000000602082015250565b60006117fd6025836114ba565b9150611808826117a1565b604082019050919050565b6000602082019050818103600083015261182c816117f0565b9050919050565b7f4f6e6c792074686520617070726f7665722063616e2063616c6c20746869732060008201527f66756e6374696f6e210000000000000000000000000000000000000000000000602082015250565b600061188f6029836114ba565b915061189a82611833565b604082019050919050565b600060208201905081810360008301526118be81611882565b9050919050565b7f4e487b7100000000000000000000000000000000000000000000000000000000600052602260045260246000fd5b6000600282049050600182168061190c57607f821691505b60208210810361191f5761191e6118c5565b5b50919050565b7f4f6e6c79206b6e6f776e207061796565732063616e206372656174652065787060008201527f656e7365732120506c6561736520636f6e746163742074686520636f756e636960208201527f6c20746f20626520616464656420746f20746865206c6973742e000000000000604082015250565b60006119a7605a836114ba565b91506119b282611925565b606082019050919050565b600060208201905081810360008301526119d68161199a565b9050919050565b7f4e487b7100000000000000000000000000000000000000000000000000000000600052604160045260246000fd5b60008190508160005260206000209050919050565b60006020601f8301049050919050565b600082821b905092915050565b600060088302611a6e7fffffffffffffffffffffffffffffffffffffffffffffffffffffffffffffffff82611a31565b611a788683611a31565b95508019841693508086168417925050509392505050565b6000819050919050565b6000611ab5611ab0611aab84611397565b611a90565b611397565b9050919050565b6000819050919050565b611acf83611a9a565b611ae3611adb82611abc565b848454611a3e565b825550505050565b600090565b611af8611aeb565b611b03818484611ac6565b505050565b5b81811015611b2757611b1c600082611af0565b600181019050611b09565b5050565b601f821115611b6c57611b3d81611a0c565b611b4684611a21565b81016020851015611b55578190505b611b69611b6185611a21565b830182611b08565b50505b505050565b600082821c905092915050565b6000611b8f60001984600802611b71565b1980831691505092915050565b6000611ba88383611b7e565b9150826002028217905092915050565b611bc1826114af565b67ffffffffffffffff811115611bda57611bd96119dd565b5b611be482546118f4565b611bef828285611b2b565b600060209050601f831160018114611c225760008415611c10578287015190505b611c1a8582611b9c565b865550611c82565b601f198416611c3086611a0c565b60005b82811015611c5857848901518255600182019150602085019450602081019050611c33565b86831015611c755784890151611c71601f891682611b7e565b8355505b6001600288020188555050505b505050505050565b82818337600083830152505050565b6000611ca583856114ba565b9350611cb2838584611c8a565b611cbb836114f5565b840190509392505050565b600060e082019050611cdb600083018c611561565b611ce8602083018b611561565b611cf5604083018a611561565b611d026060830189611561565b8181036080830152611d15818789611c99565b905081810360a0830152611d2a818587611c99565b9050611d3960c083018461142c565b9a9950505050505050505050565b7f4e487b7100000000000000000000000000000000000000000000000000000000600052601160045260246000fd5b6000611d8182611397565b91507fffffffffffffffffffffffffffffffffffffffffffffffffffffffffffffffff8203611db357611db2611d47565b5b600182019050919050565b60008154611dcb816118f4565b611dd581866114ba565b94506001821660008114611df05760018114611e0657611e39565b60ff198316865281151560200286019350611e39565b611e0f85611a0c565b60005b83811015611e3157815481890152600182019150602081019050611e12565b808801955050505b50505092915050565b600060e082019050611e57600083018a611561565b611e646020830189611561565b611e716040830188611561565b611e7e6060830187611561565b8181036080830152611e908186611dbe565b905081810360a0830152611ea48185611dbe565b9050611eb360c083018461142c565b9897505050505050505056fea264697066735822122069723689fabdf4b621a3b4c6eb602ade7a7710a105ac016a1801d314bdfd8d0264736f6c63430008180033",
  "linkReferences": {},
  "deployedLinkReferences": {}
}