{
  "_format": "hh-sol-artifact-1",
  "contractName": "ExpenseTracker",
  "sourceName": "contracts/ExpenseTracker.sol",
  "abi": [
    {
      "anonymous": false,
      "inputs": [
        {
          "indexed": false,
          "internalType": "uint256",
          "name": "expenseCount",
          "type": "uint256"
        },
        {
          "indexed": false,
          "internalType": "uint256",
          "name": "amount",
          "type": "uint256"
        },
        {
          "indexed": false,
          "internalType": "string",
          "name": "description",
          "type": "string"
        },
        {
          "indexed": false,
          "internalType": "string",
          "name": "IBAN",
          "type": "string"
        },
        {
          "indexed": false,
          "internalType": "address",
          "name": "payee_identifier",
          "type": "address"
        }
      ],
      "name": "ExpenseApproved",
      "type": "event"
    },
    {
      "anonymous": false,
      "inputs": [
        {
          "indexed": false,
          "internalType": "uint256",
          "name": "expenseCount",
          "type": "uint256"
        },
        {
          "indexed": false,
          "internalType": "uint256",
          "name": "amount",
          "type": "uint256"
        },
        {
          "indexed": false,
          "internalType": "string",
          "name": "description",
          "type": "string"
        },
        {
          "indexed": false,
          "internalType": "string",
          "name": "IBAN",
          "type": "string"
        },
        {
          "indexed": false,
          "internalType": "address",
          "name": "payee_identifier",
          "type": "address"
        }
      ],
      "name": "ExpenseCreated",
      "type": "event"
    },
    {
      "anonymous": false,
      "inputs": [
        {
          "indexed": false,
          "internalType": "uint256",
          "name": "expenseCount",
          "type": "uint256"
        },
        {
          "indexed": false,
          "internalType": "uint256",
          "name": "amount",
          "type": "uint256"
        },
        {
          "indexed": false,
          "internalType": "string",
          "name": "description",
          "type": "string"
        },
        {
          "indexed": false,
          "internalType": "string",
          "name": "IBAN",
          "type": "string"
        },
        {
          "indexed": false,
          "internalType": "address",
          "name": "payee_identifier",
          "type": "address"
        }
      ],
      "name": "ExpenseRejected",
      "type": "event"
    },
    {
      "inputs": [
        {
          "internalType": "address",
          "name": "_payee",
          "type": "address"
        }
      ],
      "name": "addPayee",
      "outputs": [],
      "stateMutability": "nonpayable",
      "type": "function"
    },
    {
      "inputs": [
        {
          "internalType": "uint256",
          "name": "_expenseId",
          "type": "uint256"
        }
      ],
      "name": "approveExpense",
      "outputs": [],
      "stateMutability": "nonpayable",
      "type": "function"
    },
    {
      "inputs": [
        {
          "internalType": "uint256",
          "name": "_amount",
          "type": "uint256"
        },
        {
          "internalType": "string",
          "name": "_description",
          "type": "string"
        },
        {
          "internalType": "string",
          "name": "_IBAN",
          "type": "string"
        }
      ],
      "name": "createExpense",
      "outputs": [],
      "stateMutability": "nonpayable",
      "type": "function"
    },
    {
      "inputs": [],
      "name": "expenseCount",
      "outputs": [
        {
          "internalType": "uint256",
          "name": "",
          "type": "uint256"
        }
      ],
      "stateMutability": "view",
      "type": "function"
    },
    {
      "inputs": [
        {
          "internalType": "uint256",
          "name": "",
          "type": "uint256"
        }
      ],
      "name": "expenses",
      "outputs": [
        {
          "internalType": "uint256",
          "name": "id",
          "type": "uint256"
        },
        {
          "internalType": "uint256",
          "name": "amount",
          "type": "uint256"
        },
        {
          "internalType": "string",
          "name": "description",
          "type": "string"
        },
        {
          "internalType": "string",
          "name": "IBAN",
          "type": "string"
        },
        {
          "internalType": "address",
          "name": "payee_identifier",
          "type": "address"
        },
        {
          "internalType": "enum ExpenseTracker.Status",
          "name": "status",
          "type": "uint8"
        }
      ],
      "stateMutability": "view",
      "type": "function"
    },
    {
      "inputs": [
        {
          "internalType": "uint256",
          "name": "_expenseId",
          "type": "uint256"
        }
      ],
      "name": "getExpenseAmount",
      "outputs": [
        {
          "internalType": "uint256",
          "name": "",
          "type": "uint256"
        }
      ],
      "stateMutability": "view",
      "type": "function"
    },
    {
      "inputs": [],
      "name": "getExpenseCount",
      "outputs": [
        {
          "internalType": "uint256",
          "name": "",
          "type": "uint256"
        }
      ],
      "stateMutability": "view",
      "type": "function"
    },
    {
      "inputs": [
        {
          "internalType": "uint256",
          "name": "_expenseId",
          "type": "uint256"
        }
      ],
      "name": "getExpenseDescription",
      "outputs": [
        {
          "internalType": "string",
          "name": "",
          "type": "string"
        }
      ],
      "stateMutability": "view",
      "type": "function"
    },
    {
      "inputs": [
        {
          "internalType": "uint256",
          "name": "_expenseId",
          "type": "uint256"
        }
      ],
      "name": "getExpenseIBAN",
      "outputs": [
        {
          "internalType": "string",
          "name": "",
          "type": "string"
        }
      ],
      "stateMutability": "view",
      "type": "function"
    },
    {
      "inputs": [
        {
          "internalType": "uint256",
          "name": "_expenseId",
          "type": "uint256"
        }
      ],
      "name": "getExpensePayeeIdentifier",
      "outputs": [
        {
          "internalType": "address",
          "name": "",
          "type": "address"
        }
      ],
      "stateMutability": "view",
      "type": "function"
    },
    {
      "inputs": [
        {
          "internalType": "uint256",
          "name": "_expenseId",
          "type": "uint256"
        }
      ],
      "name": "getExpenseStatus",
      "outputs": [
        {
          "internalType": "string",
          "name": "",
          "type": "string"
        }
      ],
      "stateMutability": "view",
      "type": "function"
    },
    {
      "inputs": [
        {
          "internalType": "address",
          "name": "",
          "type": "address"
        }
      ],
      "name": "knownPayees",
      "outputs": [
        {
          "internalType": "bool",
          "name": "",
          "type": "bool"
        }
      ],
      "stateMutability": "view",
      "type": "function"
    },
    {
      "inputs": [
        {
          "internalType": "uint256",
          "name": "_expenseId",
          "type": "uint256"
        }
      ],
      "name": "rejectExpense",
      "outputs": [],
      "stateMutability": "nonpayable",
      "type": "function"
    },
    {
      "inputs": [
        {
          "internalType": "address",
          "name": "_payee",
          "type": "address"
        }
      ],
      "name": "removePayee",
      "outputs": [],
      "stateMutability": "nonpayable",
      "type": "function"
    }
  ],
  "bytecode": "0x6080604052336000806101000a81548173ffffffffffffffffffffffffffffffffffffffff021916908373ffffffffffffffffffffffffffffffffffffffff16021790555034801561005057600080fd5b50611c5c806100606000396000f3fe608060405234801561001057600080fd5b50600436106100ea5760003560e01c80638503a40a1161008c578063b579e7f111610066578063b579e7f11461029a578063bcf04ea3146102b6578063dce59c00146102d4578063eed034c3146102f0576100ea565b80638503a40a146102195780638c91286414610235578063af4afe0a14610265576100ea565b806352e7df5d116100c857806352e7df5d1461016b578063732d995f1461018957806374203e63146101b957806380827c07146101e9576100ea565b8063215d53fd146100ef5780633ed358551461011f5780634e5877c41461013b575b600080fd5b6101096004803603810190610104919061116c565b61030c565b60405161011691906111da565b60405180910390f35b61013960048036038101906101349190611221565b610393565b005b6101556004803603810190610150919061116c565b61047c565b60405161016291906112de565b60405180910390f35b61017361056b565b604051610180919061130f565b60405180910390f35b6101a3600480360381019061019e919061116c565b610571565b6040516101b0919061130f565b60405180910390f35b6101d360048036038101906101ce919061116c565b6105d8565b6040516101e091906112de565b60405180910390f35b61020360048036038101906101fe9190611221565b610777565b6040516102109190611345565b60405180910390f35b610233600480360381019061022e91906113c5565b610797565b005b61024f600480360381019061024a919061116c565b610a36565b60405161025c91906112de565b60405180910390f35b61027f600480360381019061027a919061116c565b610b25565b604051610291969594939291906114d1565b60405180910390f35b6102b460048036038101906102af919061116c565b610c9e565b005b6102be610e6b565b6040516102cb919061130f565b60405180910390f35b6102ee60048036038101906102e99190611221565b610e75565b005b61030a6004803603810190610305919061116c565b610f5e565b005b600081600254811115610354576040517f08c379a000000000000000000000000000000000000000000000000000000000815260040161034b906115b2565b60405180910390fd5b6001600084815260200190815260200160002060040160009054906101000a900473ffffffffffffffffffffffffffffffffffffffff16915050919050565b60008054906101000a900473ffffffffffffffffffffffffffffffffffffffff1673ffffffffffffffffffffffffffffffffffffffff163373ffffffffffffffffffffffffffffffffffffffff1614610421576040517f08c379a000000000000000000000000000000000000000000000000000000000815260040161041890611644565b60405180910390fd5b6000600360008373ffffffffffffffffffffffffffffffffffffffff1673ffffffffffffffffffffffffffffffffffffffff16815260200190815260200160002060006101000a81548160ff02191690831515021790555050565b6060816002548111156104c4576040517f08c379a00000000000000000000000000000000000000000000000000000000081526004016104bb906115b2565b60405180910390fd5b6001600084815260200190815260200160002060020180546104e590611693565b80601f016020809104026020016040519081016040528092919081815260200182805461051190611693565b801561055e5780601f106105335761010080835404028352916020019161055e565b820191906000526020600020905b81548152906001019060200180831161054157829003601f168201915b5050505050915050919050565b60025481565b6000816002548111156105b9576040517f08c379a00000000000000000000000000000000000000000000000000000000081526004016105b0906115b2565b60405180910390fd5b6001600084815260200190815260200160002060010154915050919050565b606081600254811115610620576040517f08c379a0000000000000000000000000000000000000000000000000000000008152600401610617906115b2565b60405180910390fd5b600060028111156106345761063361145a565b5b6001600085815260200190815260200160002060040160149054906101000a900460ff16600281111561066a5761066961145a565b5b036106ac576040518060400160405280600781526020017f50656e64696e67000000000000000000000000000000000000000000000000008152509150610771565b600160028111156106c0576106bf61145a565b5b6001600085815260200190815260200160002060040160149054906101000a900460ff1660028111156106f6576106f561145a565b5b03610738576040518060400160405280600881526020017f417070726f7665640000000000000000000000000000000000000000000000008152509150610771565b6040518060400160405280600881526020017f52656a656374656400000000000000000000000000000000000000000000000081525091505b50919050565b60036020528060005260406000206000915054906101000a900460ff1681565b600360003373ffffffffffffffffffffffffffffffffffffffff1673ffffffffffffffffffffffffffffffffffffffff16815260200190815260200160002060009054906101000a900460ff16610823576040517f08c379a000000000000000000000000000000000000000000000000000000000815260040161081a9061175c565b60405180910390fd5b6040518060c00160405280600254815260200186815260200185858080601f016020809104026020016040519081016040528093929190818152602001838380828437600081840152601f19601f82011690508083019250505050505050815260200183838080601f016020809104026020016040519081016040528093929190818152602001838380828437600081840152601f19601f8201169050808301925050505050505081526020013373ffffffffffffffffffffffffffffffffffffffff16815260200160006002811115610900576108ff61145a565b5b815250600160006002548152602001908152602001600020600082015181600001556020820151816001015560408201518160020190816109419190611957565b5060608201518160030190816109579190611957565b5060808201518160040160006101000a81548173ffffffffffffffffffffffffffffffffffffffff021916908373ffffffffffffffffffffffffffffffffffffffff16021790555060a08201518160040160146101000a81548160ff021916908360028111156109ca576109c961145a565b5b02179055509050507f0fb11577dde99ef0c60dcbcde92ee5733cf5dbc6404452d2594c8883491eb500600254868686868633604051610a0f9796959493929190611a65565b60405180910390a160026000815480929190610a2a90611af9565b91905055505050505050565b606081600254811115610a7e576040517f08c379a0000000000000000000000000000000000000000000000000000000008152600401610a75906115b2565b60405180910390fd5b600160008481526020019081526020016000206003018054610a9f90611693565b80601f0160208091040260200160405190810160405280929190818152602001828054610acb90611693565b8015610b185780601f10610aed57610100808354040283529160200191610b18565b820191906000526020600020905b815481529060010190602001808311610afb57829003601f168201915b5050505050915050919050565b6001602052806000526040600020600091509050806000015490806001015490806002018054610b5490611693565b80601f0160208091040260200160405190810160405280929190818152602001828054610b8090611693565b8015610bcd5780601f10610ba257610100808354040283529160200191610bcd565b820191906000526020600020905b815481529060010190602001808311610bb057829003601f168201915b505050505090806003018054610be290611693565b80601f0160208091040260200160405190810160405280929190818152602001828054610c0e90611693565b8015610c5b5780601f10610c3057610100808354040283529160200191610c5b565b820191906000526020600020905b815481529060010190602001808311610c3e57829003601f168201915b5050505050908060040160009054906101000a900473ffffffffffffffffffffffffffffffffffffffff16908060040160149054906101000a900460ff16905086565b60008054906101000a900473ffffffffffffffffffffffffffffffffffffffff1673ffffffffffffffffffffffffffffffffffffffff163373ffffffffffffffffffffffffffffffffffffffff1614610d2c576040517f08c379a0000000000000000000000000000000000000000000000000000000008152600401610d2390611644565b60405180910390fd5b80600254811115610d72576040517f08c379a0000000000000000000000000000000000000000000000000000000008152600401610d69906115b2565b60405180910390fd5b600180600084815260200190815260200160002060040160146101000a81548160ff02191690836002811115610dab57610daa61145a565b5b02179055507f9d9396d3c4a1733aad70fdad1befad18f98295288b3e3be63d0885acbfb6a126600254600160008581526020019081526020016000206001015460016000868152602001908152602001600020600201600160008781526020019081526020016000206003016001600088815260200190815260200160002060040160009054906101000a900473ffffffffffffffffffffffffffffffffffffffff16604051610e5f959493929190611bc5565b60405180910390a15050565b6000600254905090565b60008054906101000a900473ffffffffffffffffffffffffffffffffffffffff1673ffffffffffffffffffffffffffffffffffffffff163373ffffffffffffffffffffffffffffffffffffffff1614610f03576040517f08c379a0000000000000000000000000000000000000000000000000000000008152600401610efa90611644565b60405180910390fd5b6001600360008373ffffffffffffffffffffffffffffffffffffffff1673ffffffffffffffffffffffffffffffffffffffff16815260200190815260200160002060006101000a81548160ff02191690831515021790555050565b60008054906101000a900473ffffffffffffffffffffffffffffffffffffffff1673ffffffffffffffffffffffffffffffffffffffff163373ffffffffffffffffffffffffffffffffffffffff1614610fec576040517f08c379a0000000000000000000000000000000000000000000000000000000008152600401610fe390611644565b60405180910390fd5b80600254811115611032576040517f08c379a0000000000000000000000000000000000000000000000000000000008152600401611029906115b2565b60405180910390fd5b60026001600084815260200190815260200160002060040160146101000a81548160ff0219169083600281111561106c5761106b61145a565b5b02179055507f5493177c1126e7ad4660b88aa6ebec57844a6a537a4667c0a8544ef7085e2205600254600160008581526020019081526020016000206001015460016000868152602001908152602001600020600201600160008781526020019081526020016000206003016001600088815260200190815260200160002060040160009054906101000a900473ffffffffffffffffffffffffffffffffffffffff16604051611120959493929190611bc5565b60405180910390a15050565b600080fd5b600080fd5b6000819050919050565b61114981611136565b811461115457600080fd5b50565b60008135905061116681611140565b92915050565b6000602082840312156111825761118161112c565b5b600061119084828501611157565b91505092915050565b600073ffffffffffffffffffffffffffffffffffffffff82169050919050565b60006111c482611199565b9050919050565b6111d4816111b9565b82525050565b60006020820190506111ef60008301846111cb565b92915050565b6111fe816111b9565b811461120957600080fd5b50565b60008135905061121b816111f5565b92915050565b6000602082840312156112375761123661112c565b5b60006112458482850161120c565b91505092915050565b600081519050919050565b600082825260208201905092915050565b60005b8381101561128857808201518184015260208101905061126d565b60008484015250505050565b6000601f19601f8301169050919050565b60006112b08261124e565b6112ba8185611259565b93506112ca81856020860161126a565b6112d381611294565b840191505092915050565b600060208201905081810360008301526112f881846112a5565b905092915050565b61130981611136565b82525050565b60006020820190506113246000830184611300565b92915050565b60008115159050919050565b61133f8161132a565b82525050565b600060208201905061135a6000830184611336565b92915050565b600080fd5b600080fd5b600080fd5b60008083601f84011261138557611384611360565b5b8235905067ffffffffffffffff8111156113a2576113a1611365565b5b6020830191508360018202830111156113be576113bd61136a565b5b9250929050565b6000806000806000606086880312156113e1576113e061112c565b5b60006113ef88828901611157565b955050602086013567ffffffffffffffff8111156114105761140f611131565b5b61141c8882890161136f565b9450945050604086013567ffffffffffffffff81111561143f5761143e611131565b5b61144b8882890161136f565b92509250509295509295909350565b7f4e487b7100000000000000000000000000000000000000000000000000000000600052602160045260246000fd5b6003811061149a5761149961145a565b5b50565b60008190506114ab82611489565b919050565b60006114bb8261149d565b9050919050565b6114cb816114b0565b82525050565b600060c0820190506114e66000830189611300565b6114f36020830188611300565b818103604083015261150581876112a5565b9050818103606083015261151981866112a5565b905061152860808301856111cb565b61153560a08301846114c2565b979650505050505050565b7f457870656e736520646f6573206e6f7420657869737420696e2074686520737960008201527f7374656d21000000000000000000000000000000000000000000000000000000602082015250565b600061159c602583611259565b91506115a782611540565b604082019050919050565b600060208201905081810360008301526115cb8161158f565b9050919050565b7f4f6e6c792074686520617070726f7665722063616e2063616c6c20746869732060008201527f66756e6374696f6e210000000000000000000000000000000000000000000000602082015250565b600061162e602983611259565b9150611639826115d2565b604082019050919050565b6000602082019050818103600083015261165d81611621565b9050919050565b7f4e487b7100000000000000000000000000000000000000000000000000000000600052602260045260246000fd5b600060028204905060018216806116ab57607f821691505b6020821081036116be576116bd611664565b5b50919050565b7f4f6e6c79206b6e6f776e207061796565732063616e206372656174652065787060008201527f656e7365732120506c6561736520636f6e746163742074686520636f756e636960208201527f6c20746f20626520616464656420746f20746865206c6973742e000000000000604082015250565b6000611746605a83611259565b9150611751826116c4565b606082019050919050565b6000602082019050818103600083015261177581611739565b9050919050565b7f4e487b7100000000000000000000000000000000000000000000000000000000600052604160045260246000fd5b60008190508160005260206000209050919050565b60006020601f8301049050919050565b600082821b905092915050565b60006008830261180d7fffffffffffffffffffffffffffffffffffffffffffffffffffffffffffffffff826117d0565b61181786836117d0565b95508019841693508086168417925050509392505050565b6000819050919050565b600061185461184f61184a84611136565b61182f565b611136565b9050919050565b6000819050919050565b61186e83611839565b61188261187a8261185b565b8484546117dd565b825550505050565b600090565b61189761188a565b6118a2818484611865565b505050565b5b818110156118c6576118bb60008261188f565b6001810190506118a8565b5050565b601f82111561190b576118dc816117ab565b6118e5846117c0565b810160208510156118f4578190505b611908611900856117c0565b8301826118a7565b50505b505050565b600082821c905092915050565b600061192e60001984600802611910565b1980831691505092915050565b6000611947838361191d565b9150826002028217905092915050565b6119608261124e565b67ffffffffffffffff8111156119795761197861177c565b5b6119838254611693565b61198e8282856118ca565b600060209050601f8311600181146119c157600084156119af578287015190505b6119b9858261193b565b865550611a21565b601f1984166119cf866117ab565b60005b828110156119f7578489015182556001820191506020850194506020810190506119d2565b86831015611a145784890151611a10601f89168261191d565b8355505b6001600288020188555050505b505050505050565b82818337600083830152505050565b6000611a448385611259565b9350611a51838584611a29565b611a5a83611294565b840190509392505050565b600060a082019050611a7a600083018a611300565b611a876020830189611300565b8181036040830152611a9a818789611a38565b90508181036060830152611aaf818587611a38565b9050611abe60808301846111cb565b98975050505050505050565b7f4e487b7100000000000000000000000000000000000000000000000000000000600052601160045260246000fd5b6000611b0482611136565b91507fffffffffffffffffffffffffffffffffffffffffffffffffffffffffffffffff8203611b3657611b35611aca565b5b600182019050919050565b60008154611b4e81611693565b611b588186611259565b94506001821660008114611b735760018114611b8957611bbc565b60ff198316865281151560200286019350611bbc565b611b92856117ab565b60005b83811015611bb457815481890152600182019150602081019050611b95565b808801955050505b50505092915050565b600060a082019050611bda6000830188611300565b611be76020830187611300565b8181036040830152611bf98186611b41565b90508181036060830152611c0d8185611b41565b9050611c1c60808301846111cb565b969550505050505056fea2646970667358221220cbf7087b9df5e9c99bc52bf270a08bbcb5100caa30eb4671d4c2909eb47997d164736f6c63430008180033",
  "linkReferences": {},
  "deployedLinkReferences": {}
}